{
  "contractName": "BlockDice65Turn3",
  "abi": [
    {
      "inputs": [
        {
          "name": "diceAddress",
          "type": "address"
        }
      ],
      "payable": false,
      "stateMutability": "nonpayable",
      "type": "constructor"
    },
    {
      "payable": true,
      "stateMutability": "payable",
      "type": "fallback"
    },
    {
      "anonymous": false,
      "inputs": [
        {
          "indexed": true,
          "name": "account",
          "type": "address"
        },
        {
          "indexed": false,
          "name": "verifyBlocks",
          "type": "uint8"
        },
        {
          "indexed": false,
          "name": "timestamp",
          "type": "uint256"
        }
      ],
      "name": "TurnStarted",
      "type": "event"
    },
    {
      "anonymous": false,
      "inputs": [
        {
          "indexed": true,
          "name": "account",
          "type": "address"
        },
        {
          "indexed": false,
          "name": "bank",
          "type": "uint8[]"
        },
        {
          "indexed": false,
          "name": "timestamp",
          "type": "uint256"
        }
      ],
      "name": "TurnContinued",
      "type": "event"
    },
    {
      "anonymous": false,
      "inputs": [
        {
          "indexed": true,
          "name": "account",
          "type": "address"
        },
        {
          "indexed": false,
          "name": "bank",
          "type": "uint8[]"
        },
        {
          "indexed": false,
          "name": "timestamp",
          "type": "uint256"
        }
      ],
      "name": "TurnEnded",
      "type": "event"
    },
    {
      "constant": false,
      "inputs": [
        {
          "name": "hash",
          "type": "bytes32"
        },
        {
          "name": "verifyBlocks",
          "type": "uint8"
        }
      ],
      "name": "startTurn",
      "outputs": [],
      "payable": false,
      "stateMutability": "nonpayable",
      "type": "function"
    },
    {
      "constant": false,
      "inputs": [
        {
          "name": "turnKey",
          "type": "bytes32"
        },
        {
          "name": "nextHash",
          "type": "bytes32"
        },
        {
          "name": "bankFilter",
          "type": "uint8[]"
        }
      ],
      "name": "continueTurn",
      "outputs": [
        {
          "name": "bank",
          "type": "uint8[]"
        },
        {
          "name": "turnComplete",
          "type": "bool"
        }
      ],
      "payable": false,
      "stateMutability": "nonpayable",
      "type": "function"
    },
    {
      "constant": true,
      "inputs": [
        {
          "name": "turnKey",
          "type": "bytes32"
        }
      ],
      "name": "getBank",
      "outputs": [
        {
          "name": "bank",
          "type": "uint8[]"
        }
      ],
      "payable": false,
      "stateMutability": "view",
      "type": "function"
    },
    {
      "constant": true,
      "inputs": [
        {
          "name": "turnKey",
          "type": "bytes32"
        }
      ],
      "name": "getRoll",
      "outputs": [
        {
          "name": "roll",
          "type": "uint8[]"
        }
      ],
      "payable": false,
      "stateMutability": "view",
      "type": "function"
    },
    {
      "constant": false,
      "inputs": [],
      "name": "abortTurn",
      "outputs": [
        {
          "name": "turnComplete",
          "type": "bool"
        }
      ],
      "payable": false,
      "stateMutability": "nonpayable",
      "type": "function"
    },
    {
      "constant": true,
      "inputs": [],
      "name": "turnComplete",
      "outputs": [
        {
          "name": "isComplete",
          "type": "bool"
        }
      ],
      "payable": false,
      "stateMutability": "view",
      "type": "function"
    },
    {
      "constant": false,
      "inputs": [],
      "name": "destroy",
      "outputs": [],
      "payable": false,
      "stateMutability": "nonpayable",
      "type": "function"
    }
  ],
  "bytecode": "0x608060405234801561001057600080fd5b5060405160208061156b833981016040525160008054600160a060020a0319908116331790915560018054600160a060020a039093169290911691909117905561150c8061005f6000396000f3006080604052600436106100825763ffffffff7c01000000000000000000000000000000000000000000000000000000006000350416631994331981146100b1578063540b3ce6146101195780635c8f71ff146101a057806383197ef0146101c95780638fbecfde146101e0578063a65372b9146101fe578063d0b685a914610213575b60405133903480156108fc02916000818181858888f193505050501580156100ae573d6000803e3d6000fd5b50005b3480156100bd57600080fd5b506100c960043561022b565b60408051602080825283518183015283519192839290830191858101910280838360005b838110156101055781810151838201526020016100ed565b505050509050019250505060405180910390f35b34801561012557600080fd5b50610141600480359060248035916044359182019101356103fd565b604051808060200183151515158152602001828103825284818151815260200191508051906020019060200280838360005b8381101561018b578181015183820152602001610173565b50505050905001935050505060405180910390f35b3480156101ac57600080fd5b506101b5610b58565b604080519115158252519081900360200190f35b3480156101d557600080fd5b506101de610b74565b005b3480156101ec57600080fd5b506101de60043560ff60243516610bb3565b34801561020a57600080fd5b506101b5610e9c565b34801561021f57600080fd5b506100c9600435611097565b32600090815260026020526040902054606090610100900460ff1615156102b357604080517f08c379a000000000000000000000000000000000000000000000000000000000815260206004820152600d60248201527f4e6f7420696e2061207475726e00000000000000000000000000000000000000604482015290519081900360640190fd5b600154326000908152600260205260408082205481517f81931e4b00000000000000000000000000000000000000000000000000000000815260048101879052600660248201526201000090910460ff908116600503166044820152905173ffffffffffffffffffffffffffffffffffffffff909316926381931e4b9260648084019391929182900301818387803b15801561034e57600080fd5b505af1158015610362573d6000803e3d6000fd5b505050506040513d6000823e601f3d9081017fffffffffffffffffffffffffffffffffffffffffffffffffffffffffffffffe016820160405260208110156103a957600080fd5b8101908080516401000000008111156103c157600080fd5b820160208101848111156103d457600080fd5b81518560208202830111640100000000821117156103f157600080fd5b50909695505050505050565b606060008181806006861461047357604080517f08c379a000000000000000000000000000000000000000000000000000000000815260206004820152601260248201527f496e76616c69642062616e6b46696c7465720000000000000000000000000000604482015290519081900360640190fd5b32600090815260026020526040902054610100900460ff1615156104f857604080517f08c379a000000000000000000000000000000000000000000000000000000000815260206004820152600d60248201527f4e6f7420696e2061207475726e00000000000000000000000000000000000000604482015290519081900360640190fd5b600154326000908152600260205260408082205481517f09988f68000000000000000000000000000000000000000000000000000000008152600481018e9052600660248201526201000090910460ff908116600503166044820152905173ffffffffffffffffffffffffffffffffffffffff909316926309988f689260648084019391929182900301818387803b15801561059357600080fd5b505af11580156105a7573d6000803e3d6000fd5b505050506040513d6000823e601f3d9081017fffffffffffffffffffffffffffffffffffffffffffffffffffffffffffffffe016820160405260208110156105ee57600080fd5b81019080805164010000000081111561060657600080fd5b8201602081018481111561061957600080fd5b815185602082028301116401000000008211171561063657600080fd5b50503260009081526002602090815260409182902060010180548351818402810184019094528084529399509195509093509091508301828280156106b857602002820191906000526020600020906000905b825461010083900a900460ff168152602060019283018181049485019490930390920291018084116106895790505b50505050509450600091506000905060008351111561081c575060005b82518160ff16101561072b57600185848360ff168151811015156106f557fe5b9060200190602002015160ff1681518110151561070e57fe5b602090810290910101805160ff92019190911690526001016106d5565b32600090815260026020526040902054600361010090910460ff1610801561075257508715155b15610812575060005b60068160ff16101561080d57848160ff1681518110151561077857fe5b9060200190602002015160ff1687878360ff16818110151561079657fe5b9050602002013560ff1660ff1610156107e557868660ff83168181106107b857fe5b9050602002013560ff16858260ff168151811015156107d357fe5b60ff9092166020928302909101909101525b848160ff168151811015156107f657fe5b60209081029091010151919091019060010161075b565b610817565b600591505b61087c565b5060005b60068160ff16101561087c57848160ff1681518110151561083d57fe5b6020908102909101015160ff1615610874576000858260ff1681518110151561086257fe5b60ff9092166020928302909101909101525b600101610820565b60058260ff161015610a6f576001543260009081526002602090815260408083205481517f92e7134e000000000000000000000000000000000000000000000000000000008152600481018e905260ff9091166024820152905192975073ffffffffffffffffffffffffffffffffffffffff909316926392e7134e926044808301939282900301818a87803b15801561091457600080fd5b505af1158015610928573d6000803e3d6000fd5b505050506040513d602081101561093e57600080fd5b5050326000908152600260209081526040909120805460ff85811662010000027fffffffffffffffffffffffffffffffffffffffffffffffffffffffffff00ffff61010080850484166001908101909416027fffffffffffffffffffffffffffffffffffffffffffffffffffffffffffff00ff909416939093179290921691909117825587516109d59392909101918801906113bc565b503273ffffffffffffffffffffffffffffffffffffffff167fda02c2f979aa2aea1463bea8c7d48123d84c542daf942dee01c44f610088c5e586426040518080602001838152602001828103825284818151815260200191508051906020019060200280838360005b83811015610a56578181015183820152602001610a3e565b50505050905001935050505060405180910390a2610b4c565b32600090815260026020526040812080547fffffffffffffffffffffffffffffffffffffffffffffffffffffffffff0000001681556001955090610ab582870182611462565b50503273ffffffffffffffffffffffffffffffffffffffff167f9ff1a2e297277fd9ae6d157d4a592f5c7736dda3e3ef4970f4fd97041a13b7af86426040518080602001838152602001828103825284818151815260200191508051906020019060200280838360005b83811015610b37578181015183820152602001610b1f565b50505050905001935050505060405180910390a25b50505094509492505050565b32600090815260026020526040902054610100900460ff161590565b60005473ffffffffffffffffffffffffffffffffffffffff163314610b9857600080fd5b60005473ffffffffffffffffffffffffffffffffffffffff16ff5b32600090815260026020526040902054610100900460ff1615610c3757604080517f08c379a000000000000000000000000000000000000000000000000000000000815260206004820152601160248201527f416c726561647920696e2061207475726e000000000000000000000000000000604482015290519081900360640190fd5b60ff81161515610ca857604080517f08c379a000000000000000000000000000000000000000000000000000000000815260206004820152601860248201527f766572696679426c6f636b73206d757374206265203e20300000000000000000604482015290519081900360640190fd5b600154604080517f92e7134e0000000000000000000000000000000000000000000000000000000081526004810185905260ff84166024820152905173ffffffffffffffffffffffffffffffffffffffff909216916392e7134e916044808201926020929091908290030181600087803b158015610d2557600080fd5b505af1158015610d39573d6000803e3d6000fd5b505050506040513d6020811015610d4f57600080fd5b50506040805160808101825260ff83168152600160208201526000818301528151600680825260e0820190935290916060830191908160200160208202803883395050509052326000908152600260209081526040918290208351815485840151948601517fffffffffffffffffffffffffffffffffffffffffffffffffffffffffffffff0090911660ff928316177fffffffffffffffffffffffffffffffffffffffffffffffffffffffffffff00ff1661010095831695909502949094177fffffffffffffffffffffffffffffffffffffffffffffffffffffffffff00ffff1662010000919094160292909217825560608301518051610e5692600185019201906113bc565b50506040805160ff8416815242602082015281513293507f65d65a7754bdaa79ef64eb7d95ecce1908303dfaeddd5029cbec9c97358be735929181900390910190a25050565b32600090815260026020526040812054610100900460ff161561109457600160009054906101000a900473ffffffffffffffffffffffffffffffffffffffff1673ffffffffffffffffffffffffffffffffffffffff16633677cf7d6040518163ffffffff167c0100000000000000000000000000000000000000000000000000000000028152600401600060405180830381600087803b158015610f3f57600080fd5b505af1158015610f53573d6000803e3d6000fd5b505050503273ffffffffffffffffffffffffffffffffffffffff167f9ff1a2e297277fd9ae6d157d4a592f5c7736dda3e3ef4970f4fd97041a13b7af600260003273ffffffffffffffffffffffffffffffffffffffff1673ffffffffffffffffffffffffffffffffffffffff168152602001908152602001600020600101426040518080602001838152602001828103825284818154815260200191508054801561103b57602002820191906000526020600020906000905b825461010083900a900460ff1681526020600192830181810494850194909303909202910180841161100c5790505b5050935050505060405180910390a232600090815260026020526040812080547fffffffffffffffffffffffffffffffffffffffffffffffffffffffffff0000001681559061108d6001830182611462565b5050600190505b90565b326000908152600260205260408120546060918291610100900460ff16151561112157604080517f08c379a000000000000000000000000000000000000000000000000000000000815260206004820152600d60248201527f4e6f7420696e2061207475726e00000000000000000000000000000000000000604482015290519081900360640190fd5b600154326000908152600260205260408082205481517f81931e4b00000000000000000000000000000000000000000000000000000000815260048101899052600660248201526201000090910460ff908116600503166044820152905173ffffffffffffffffffffffffffffffffffffffff909316926381931e4b9260648084019391929182900301818387803b1580156111bc57600080fd5b505af11580156111d0573d6000803e3d6000fd5b505050506040513d6000823e601f3d9081017fffffffffffffffffffffffffffffffffffffffffffffffffffffffffffffffe0168201604052602081101561121757600080fd5b81019080805164010000000081111561122f57600080fd5b8201602081018481111561124257600080fd5b815185602082028301116401000000008211171561125f57600080fd5b50503260009081526002602090815260409182902060010180548351818402810184019094528084529398509195509093509091508301828280156112e157602002820191906000526020600020906000905b825461010083900a900460ff168152602060019283018181049485019490930390920291018084116112b25790505b5050505050925060009050600082511115611355575060005b81518160ff16101561135057600183838360ff1681518110151561131a57fe5b9060200190602002015160ff1681518110151561133357fe5b602090810290910101805160ff92019190911690526001016112fa565b6113b5565b5060005b60068160ff1610156113b557828160ff1681518110151561137657fe5b6020908102909101015160ff16156113ad576000838260ff1681518110151561139b57fe5b60ff9092166020928302909101909101525b600101611359565b5050919050565b82805482825590600052602060002090601f016020900481019282156114525791602002820160005b8382111561142357835183826101000a81548160ff021916908360ff16021790555092602001926001016020816000010492830192600103026113e5565b80156114505782816101000a81549060ff0219169055600101602081600001049283019260010302611423565b505b5061145e92915061148a565b5090565b50805460008255601f01602090049060005260206000209081019061148791906114c6565b50565b61109491905b8082111561145e5780547fffffffffffffffffffffffffffffffffffffffffffffffffffffffffffffff00168155600101611490565b61109491905b8082111561145e57600081556001016114cc5600a165627a7a72305820b1a427f5a637f3bc579f791f56e0c6e8cbae397a226775aacf76f0548e5d112f0029",
  "source": "pragma solidity ^0.4.24;\n\ninterface IBlockDice {\n    function startRoll (bytes32 hash, uint8 verifyBlocks) external returns(uint256 finishBlock);\n    function finishRoll (bytes32 key, uint8 sides, uint8 count) external \n        returns(uint8[] memory roll);\n    function abortRoll () external;\n    function getRoll (bytes32 key, uint8 sides, uint8 count) external view\n        returns(uint8[] memory roll);\n}\n\ncontract BlockDice65Turn3 {\n    \n    struct Turn {\n        uint8 verifyBlocks;\n        uint8 rolls;\n        uint8 count;\n        uint8[] bank;\n    }\n\n    address private _owner;//remove in production\n\n    IBlockDice private _dice;\n\n    mapping(address => Turn) private _turn;\n    \n    event TurnStarted (\n        address indexed account,\n        uint8 verifyBlocks,\n        uint256 timestamp\n    );\n    \n    event TurnContinued (\n        address indexed account,\n        uint8[] bank,\n        uint256 timestamp\n    );\n    \n    event TurnEnded (\n        address indexed account,\n        uint8[] bank,\n        uint256 timestamp\n    );\n\n    constructor(address diceAddress) public { \n        _owner = msg.sender;//remove in production\n        _dice = IBlockDice (diceAddress);\n    }\n    \n    function startTurn (bytes32 hash, uint8 verifyBlocks) external {\n        require (_turn[tx.origin].rolls == 0, \"Already in a turn\"); \n        require (verifyBlocks != 0, \"verifyBlocks must be > 0\");\n\n        _dice.startRoll(hash, verifyBlocks);//reverts on 0x0 hash\n        \n        _turn[tx.origin] = Turn (verifyBlocks, 1, 0, new uint8[](6));\n\n        emit TurnStarted (\n            tx.origin,\n            verifyBlocks,\n            now\n        );\n    }\n    \n    function continueTurn (\n        bytes32 turnKey, bytes32 nextHash, uint8[] bankFilter\n    ) external returns(uint8[] memory bank, bool turnComplete) {\n        require (bankFilter.length == 6, \"Invalid bankFilter\"); \n        require (_turn[tx.origin].rolls != 0, \"Not in a turn\"); \n\n        uint8[] memory roll = _dice.finishRoll(turnKey, 6, 5-_turn[tx.origin].count);\n        bank = _turn[tx.origin].bank;\n        uint8 diceCount = 0;\n        uint8 index = 0;\n        if (roll.length > 0) {\n            for (index = 0; index < roll.length; index++) bank[roll[index]] += 1;\n            if (_turn[tx.origin].rolls < 3 && nextHash != 0x0) {\n                for (index = 0; index < 6; index++) {\n                    if (bankFilter[index] < bank[index]) bank[index] = bankFilter[index];\n                    diceCount += bank[index];\n                }\n            } else diceCount = 5;\n        } else {//expired, zeroed penalty\n            for (index = 0; index < 6; index++) {\n                if (bank[index] != 0) bank[index] = 0;\n            }\n        }  \n\n        if (diceCount < 5) {\n            turnComplete = false;\n            _dice.startRoll(nextHash, _turn[tx.origin].verifyBlocks);\n            _turn[tx.origin].rolls += 1;\n            _turn[tx.origin].count = diceCount;\n            _turn[tx.origin].bank = bank; \n            emit TurnContinued (\n                tx.origin,\n                bank,\n                now\n            );\n        } else {\n            turnComplete = true;\n            delete _turn[tx.origin];\n            emit TurnEnded (\n                tx.origin,\n                bank,\n                now\n            );\n        }\n\n    }\n\n    function getBank (bytes32 turnKey) external view returns(uint8[] memory bank) {\n        require (_turn[tx.origin].rolls != 0, \"Not in a turn\"); \n\n        uint8[] memory roll = _dice.getRoll(turnKey, 6, 5-_turn[tx.origin].count);\n        bank = _turn[tx.origin].bank;\n        uint8 index = 0;\n        if (roll.length > 0) {\n            for (index = 0; index < roll.length; index++) bank[roll[index]] += 1;\n        } else {//expired, zeroed penalty\n            for (index = 0; index < 6; index++) if (bank[index] != 0) bank[index] = 0;\n        }  \n    }\n\n    function getRoll (bytes32 turnKey) external view returns(uint8[] memory roll) {\n        require (_turn[tx.origin].rolls != 0, \"Not in a turn\"); \n        roll = _dice.getRoll(turnKey, 6, 5-_turn[tx.origin].count);\n    }\n\n    function abortTurn () external returns(bool turnComplete) {\n        if (_turn[tx.origin].rolls != 0) {\n            _dice.abortRoll();\n            emit TurnEnded (\n                tx.origin,\n                _turn[tx.origin].bank,\n                now\n            );\n            delete _turn[tx.origin];\n            turnComplete = true;\n        }\n    }\n    \n    function turnComplete() external view returns (bool isComplete) {\n        isComplete = (_turn[tx.origin].rolls == 0);\n    }\n\n    //remove in production\n    function destroy() external {\n       require (msg.sender == _owner);\n       selfdestruct(_owner);\n    }\n    \n    //Return to sender, any abstract transfers\n    function () external payable { msg.sender.transfer(msg.value); }\n\n}",
  "sourcePath": "C:/Users/Brian/workspace/web3/block-dice65-turn3/contracts/BlockDice65Turn3.sol",
  "compiler": {
    "name": "solc",
    "version": "0.4.24+commit.e67f0147.Emscripten.clang"
  },
  "schemaVersion": "3.0.9",
  "updatedAt": "2019-08-01T06:41:31.743Z",
  "devdoc": {
    "methods": {}
  },
  "userdoc": {
    "methods": {}
  }
}