{
  "contractName": "BlockDice",
  "abi": [
    {
      "inputs": [],
      "payable": false,
      "stateMutability": "nonpayable",
      "type": "constructor"
    },
    {
      "payable": true,
      "stateMutability": "payable",
      "type": "fallback"
    },
    {
      "anonymous": false,
      "inputs": [
        {
          "indexed": true,
          "name": "account",
          "type": "address"
        },
        {
          "indexed": true,
          "name": "block",
          "type": "uint256"
        },
        {
          "indexed": false,
          "name": "timestamp",
          "type": "uint256"
        }
      ],
      "name": "Rolling",
      "type": "event"
    },
    {
      "anonymous": false,
      "inputs": [
        {
          "indexed": true,
          "name": "account",
          "type": "address"
        },
        {
          "indexed": false,
          "name": "sides",
          "type": "uint8"
        },
        {
          "indexed": false,
          "name": "count",
          "type": "uint8"
        },
        {
          "indexed": false,
          "name": "roll",
          "type": "uint8[]"
        },
        {
          "indexed": false,
          "name": "timestamp",
          "type": "uint256"
        }
      ],
      "name": "Rolled",
      "type": "event"
    },
    {
      "constant": false,
      "inputs": [
        {
          "name": "hash",
          "type": "bytes32"
        },
        {
          "name": "verifyBlocks",
          "type": "uint8"
        }
      ],
      "name": "startRoll",
      "outputs": [
        {
          "name": "finishBlock",
          "type": "uint256"
        }
      ],
      "payable": false,
      "stateMutability": "nonpayable",
      "type": "function"
    },
    {
      "constant": false,
      "inputs": [
        {
          "name": "key",
          "type": "bytes32"
        },
        {
          "name": "sides",
          "type": "uint8"
        },
        {
          "name": "count",
          "type": "uint8"
        }
      ],
      "name": "finishRoll",
      "outputs": [
        {
          "name": "roll",
          "type": "uint8[]"
        }
      ],
      "payable": false,
      "stateMutability": "nonpayable",
      "type": "function"
    },
    {
      "constant": false,
      "inputs": [],
      "name": "abortRoll",
      "outputs": [],
      "payable": false,
      "stateMutability": "nonpayable",
      "type": "function"
    },
    {
      "constant": true,
      "inputs": [
        {
          "name": "key",
          "type": "bytes32"
        },
        {
          "name": "sides",
          "type": "uint8"
        },
        {
          "name": "count",
          "type": "uint8"
        }
      ],
      "name": "getRoll",
      "outputs": [
        {
          "name": "roll",
          "type": "uint8[]"
        }
      ],
      "payable": false,
      "stateMutability": "view",
      "type": "function"
    },
    {
      "constant": false,
      "inputs": [],
      "name": "destroy",
      "outputs": [],
      "payable": false,
      "stateMutability": "nonpayable",
      "type": "function"
    }
  ],
  "bytecode": "0x608060405234801561001057600080fd5b5060018054600160a060020a031916331790556109d6806100326000396000f30060806040526004361061006c5763ffffffff7c010000000000000000000000000000000000000000000000000000000060003504166309988f68811461009b5780633677cf7d1461010f57806381931e4b1461012657806383197ef01461014a57806392e7134e1461015f575b60405133903480156108fc02916000818181858888f19350505050158015610098573d6000803e3d6000fd5b50005b3480156100a757600080fd5b506100bf60043560ff6024358116906044351661018f565b60408051602080825283518183015283519192839290830191858101910280838360005b838110156100fb5781810151838201526020016100e3565b505050509050019250505060405180910390f35b34801561011b57600080fd5b50610124610263565b005b34801561013257600080fd5b506100bf60043560ff6024358116906044351661026d565b34801561015657600080fd5b50610124610290565b34801561016b57600080fd5b5061017d60043560ff602435166102cf565b60408051918252519081900360200190f35b6060600061019c8561031c565b90506101a9818585610343565b91503273ffffffffffffffffffffffffffffffffffffffff167f53540276113efef7a8405ddd33a6f3ca4510ded120aed653e367e3ff6550a43b85858542604051808560ff1660ff1681526020018460ff1660ff16815260200180602001838152602001828103825284818151815260200191508051906020019060200280838360005b8381101561024557818101518382015260200161022d565b505050509050019550505050505060405180910390a2509392505050565b61026b610531565b565b6060600061027a85610561565b9050610287818585610343565b95945050505050565b60015473ffffffffffffffffffffffffffffffffffffffff1633146102b457600080fd5b60015473ffffffffffffffffffffffffffffffffffffffff16ff5b60006102db838361080e565b604080514281529051919250829132917f6af46f8fa8eb8d3a5ea7af05899c86302f41b9c9d14035164ce419821d487093919081900360200190a392915050565b600061032782610561565b3260009081526020819052604081208181556001015592915050565b6060600060018460ff1611801561035e575060ff8460ff1611155b15156103cb57604080517f08c379a000000000000000000000000000000000000000000000000000000000815260206004820152601260248201527f636f756e742063616e20626520322d3235350000000000000000000000000000604482015290519081900360640190fd5b602060ff8416111561043e57604080517f08c379a000000000000000000000000000000000000000000000000000000000815260206004820152601160248201527f636f756e742063616e20626520302d3332000000000000000000000000000000604482015290519081900360640190fd5b8260ff1660405190808252806020026020018201604052801561046b578160200160208202803883390190505b50915060008360ff1611801561048057508415155b15610529575060005b8260ff168160ff161015610529578360ff16858260ff166020811015156104ac57fe5b1a7f0100000000000000000000000000000000000000000000000000000000000000027f0100000000000000000000000000000000000000000000000000000000000000900460ff168115156104fe57fe5b06828260ff1681518110151561051057fe5b60ff909216602092830290910190910152600101610489565b509392505050565b326000908152602081905260409020600101541561026b5732600090815260208190526040812081815560010155565b60008115801590610630575060408051602080820185905282518083038201815291830192839052815191929182918401908083835b602083106105d457805182527fffffffffffffffffffffffffffffffffffffffffffffffffffffffffffffffe09092019160209182019101610597565b51815160209384036101000a7fffffffffffffffffffffffffffffffffffffffffffffffffffffffffffffffff018019909216911617905260408051929094018290039091203260009081529182905292902054909114925050505b151561069d57604080517f08c379a000000000000000000000000000000000000000000000000000000000815260206004820152601360248201527f496e76616c69642073687566666c654b65792e00000000000000000000000000604482015290519081900360640190fd5b32600090815260208190526040902060010154158015906106cf57503260009081526020819052604090206001015443115b151561073c57604080517f08c379a000000000000000000000000000000000000000000000000000000000815260206004820152601060248201527f5374696c6c2073687566666c696e672e00000000000000000000000000000000604482015290519081900360640190fd5b3260009081526020819052604090206001015460ff01431161080957326000908152602081815260409182902060010154825180830186905290408184015282518082038401815260609091019283905280519092918291908401908083835b602083106107d957805182527fffffffffffffffffffffffffffffffffffffffffffffffffffffffffffffffe0909201916020918201910161079c565b6001836020036101000a038019825116818451168082178552505050505050905001915050604051809103902090505b919050565b600060ff8216151561088157604080517f08c379a000000000000000000000000000000000000000000000000000000000815260206004820152601860248201527f766572696679426c6f636b73206d757374206265203e20300000000000000000604482015290519081900360640190fd5b8215156108ef57604080517f08c379a000000000000000000000000000000000000000000000000000000000815260206004820152601160248201527f496e76616c6964207a65726f2068617368000000000000000000000000000000604482015290519081900360640190fd5b326000908152602081905260409020600101541561096e57604080517f08c379a000000000000000000000000000000000000000000000000000000000815260206004820152601160248201527f416c72656164792073687566666c696e67000000000000000000000000000000604482015290519081900360640190fd5b5060408051808201825292835260ff919091164301602080840182815232600090815291829052929020925183559051600190920191909155905600a165627a7a72305820f7188aec91ac80964aa962594d0191daab4740271e5dfaab33b424b388d981ea0029",
  "source": "pragma solidity ^0.4.24;\nimport \"./BlockShuffler.sol\";\n\ncontract BlockDice is BlockShuffler {\n\n    address private _owner;//remove in production\n\n    event Rolling (\n        address indexed account,\n        uint256 indexed block,\n        uint256 timestamp\n    );\n    \n    event Rolled (\n        address indexed account,\n        uint8 sides,\n        uint8 count,\n        uint8[] roll,\n        uint256 timestamp\n    );\n    \n    constructor() public {\n       _owner = msg.sender;//remove in production\n    }\n    \n    function startRoll (bytes32 hash, uint8 verifyBlocks) external \n        returns(uint256 finishBlock) {\n        finishBlock = startShuffle(hash, verifyBlocks);\n        emit Rolling (\n            tx.origin,\n            finishBlock,\n            now\n        );\n    }\n\n    function finishRoll (\n        bytes32 key,\n        uint8 sides,\n        uint8 count\n    ) external returns(uint8[] memory roll) {\n        bytes32 rollHash = finishShuffle(key);\n        roll = translateRoll(rollHash, sides, count);\n        emit Rolled (\n            tx.origin, \n            sides,\n            count,\n            roll,\n            now\n        );\n    }\n\n    function abortRoll () external {\n        abortShuffle();\n    }\n\n    function getRoll (\n        bytes32 key,\n        uint8 sides,\n        uint8 count\n    ) external view returns(uint8[] memory roll) {\n        bytes32 rollHash = getShuffle(key);\n        roll = translateRoll(rollHash, sides, count);\n    }\n\n    //remove in production\n    function destroy() external {\n       require (msg.sender == _owner);\n       selfdestruct(_owner);\n    }\n    \n    //Return to sender, any abstract transfers\n    function () external payable { msg.sender.transfer(msg.value); }\n\n\n    function translateRoll (\n        bytes32 rollHash, uint8 sides, uint8 count\n    ) internal pure returns(uint8[] memory roll) {\n        require (sides > 1 && sides <= 255, \"count can be 2-255\");\n        require (count <= 32, \"count can be 0-32\");\n        roll = new uint8[](count);\n        if  (count > 0 && rollHash != 0x0) {\n            for (uint8 i = 0; i < count; i++) {\n                roll[i] = (uint8 (rollHash[i])) % sides;\n            }\n        } \n    }\n\n}",
  "sourcePath": "C:/Users/Brian/workspace/web3/block-dice/contracts/BlockDice.sol",
  "compiler": {
    "name": "solc",
    "version": "0.4.24+commit.e67f0147.Emscripten.clang"
  },
  "schemaVersion": "3.0.9",
  "updatedAt": "2019-08-01T00:10:57.724Z",
  "devdoc": {
    "methods": {}
  },
  "userdoc": {
    "methods": {}
  }
}