{
  "contractName": "CoinGameYatzy",
  "abi": [
    {
      "inputs": [
        {
          "name": "gameAddress",
          "type": "address"
        },
        {
          "name": "coinAddress",
          "type": "address"
        }
      ],
      "payable": false,
      "stateMutability": "nonpayable",
      "type": "constructor"
    },
    {
      "payable": true,
      "stateMutability": "payable",
      "type": "fallback"
    },
    {
      "anonymous": false,
      "inputs": [
        {
          "indexed": true,
          "name": "account",
          "type": "address"
        },
        {
          "indexed": true,
          "name": "tableId",
          "type": "uint256"
        },
        {
          "indexed": true,
          "name": "ante",
          "type": "uint256"
        },
        {
          "indexed": false,
          "name": "seats",
          "type": "uint8"
        },
        {
          "indexed": false,
          "name": "timestamp",
          "type": "uint256"
        }
      ],
      "name": "TableCreated",
      "type": "event"
    },
    {
      "anonymous": false,
      "inputs": [
        {
          "indexed": true,
          "name": "account",
          "type": "address"
        },
        {
          "indexed": true,
          "name": "tableId",
          "type": "uint256"
        },
        {
          "indexed": true,
          "name": "seat",
          "type": "uint8"
        },
        {
          "indexed": false,
          "name": "timestamp",
          "type": "uint256"
        }
      ],
      "name": "PlayerSit",
      "type": "event"
    },
    {
      "anonymous": false,
      "inputs": [
        {
          "indexed": true,
          "name": "account",
          "type": "address"
        },
        {
          "indexed": true,
          "name": "tableId",
          "type": "uint256"
        },
        {
          "indexed": true,
          "name": "seat",
          "type": "uint8"
        },
        {
          "indexed": false,
          "name": "timestamp",
          "type": "uint256"
        }
      ],
      "name": "PlayerLeave",
      "type": "event"
    },
    {
      "anonymous": false,
      "inputs": [
        {
          "indexed": true,
          "name": "account",
          "type": "address"
        },
        {
          "indexed": true,
          "name": "tableId",
          "type": "uint256"
        },
        {
          "indexed": true,
          "name": "seat",
          "type": "uint8"
        },
        {
          "indexed": false,
          "name": "gameId",
          "type": "uint256"
        },
        {
          "indexed": false,
          "name": "timestamp",
          "type": "uint256"
        }
      ],
      "name": "PlayerGame",
      "type": "event"
    },
    {
      "anonymous": false,
      "inputs": [
        {
          "indexed": true,
          "name": "account",
          "type": "address"
        },
        {
          "indexed": true,
          "name": "tableId",
          "type": "uint256"
        },
        {
          "indexed": true,
          "name": "seat",
          "type": "uint8"
        },
        {
          "indexed": false,
          "name": "gameId",
          "type": "uint256"
        },
        {
          "indexed": false,
          "name": "score",
          "type": "uint16"
        },
        {
          "indexed": false,
          "name": "reward",
          "type": "uint256"
        },
        {
          "indexed": false,
          "name": "timestamp",
          "type": "uint256"
        }
      ],
      "name": "PotReward",
      "type": "event"
    },
    {
      "anonymous": false,
      "inputs": [
        {
          "indexed": true,
          "name": "account",
          "type": "address"
        },
        {
          "indexed": true,
          "name": "tableId",
          "type": "uint256"
        },
        {
          "indexed": true,
          "name": "seat",
          "type": "uint8"
        },
        {
          "indexed": false,
          "name": "gameId",
          "type": "uint256"
        },
        {
          "indexed": false,
          "name": "score",
          "type": "uint16"
        },
        {
          "indexed": false,
          "name": "reward",
          "type": "uint256"
        },
        {
          "indexed": false,
          "name": "timestamp",
          "type": "uint256"
        }
      ],
      "name": "ScoreReward",
      "type": "event"
    },
    {
      "anonymous": false,
      "inputs": [
        {
          "indexed": false,
          "name": "from",
          "type": "address"
        },
        {
          "indexed": false,
          "name": "value",
          "type": "uint256"
        },
        {
          "indexed": false,
          "name": "data",
          "type": "bytes"
        },
        {
          "indexed": false,
          "name": "timestamp",
          "type": "uint256"
        }
      ],
      "name": "TokenFallback",
      "type": "event"
    },
    {
      "constant": false,
      "inputs": [
        {
          "name": "seats",
          "type": "uint8"
        },
        {
          "name": "ante",
          "type": "uint256"
        }
      ],
      "name": "createTable",
      "outputs": [
        {
          "name": "tableId",
          "type": "uint256"
        }
      ],
      "payable": false,
      "stateMutability": "nonpayable",
      "type": "function"
    },
    {
      "constant": false,
      "inputs": [
        {
          "name": "tableId",
          "type": "uint256"
        },
        {
          "name": "seat",
          "type": "uint8"
        }
      ],
      "name": "takeSeat",
      "outputs": [
        {
          "name": "",
          "type": "bool"
        }
      ],
      "payable": false,
      "stateMutability": "nonpayable",
      "type": "function"
    },
    {
      "constant": false,
      "inputs": [],
      "name": "soloSeat",
      "outputs": [
        {
          "name": "tableId",
          "type": "uint256"
        }
      ],
      "payable": false,
      "stateMutability": "nonpayable",
      "type": "function"
    },
    {
      "constant": false,
      "inputs": [
        {
          "name": "tableId",
          "type": "uint256"
        },
        {
          "name": "seat",
          "type": "uint8"
        }
      ],
      "name": "leaveSeat",
      "outputs": [
        {
          "name": "",
          "type": "bool"
        }
      ],
      "payable": false,
      "stateMutability": "nonpayable",
      "type": "function"
    },
    {
      "constant": false,
      "inputs": [
        {
          "name": "tableId",
          "type": "uint256"
        },
        {
          "name": "seat",
          "type": "uint8"
        },
        {
          "name": "gameId",
          "type": "uint256"
        }
      ],
      "name": "registerGame",
      "outputs": [
        {
          "name": "",
          "type": "bool"
        }
      ],
      "payable": false,
      "stateMutability": "nonpayable",
      "type": "function"
    },
    {
      "constant": false,
      "inputs": [
        {
          "name": "tableId",
          "type": "uint256"
        },
        {
          "name": "seat",
          "type": "uint8"
        },
        {
          "name": "gameId",
          "type": "uint256"
        }
      ],
      "name": "claimGame",
      "outputs": [
        {
          "name": "validClaim",
          "type": "bool"
        }
      ],
      "payable": false,
      "stateMutability": "nonpayable",
      "type": "function"
    },
    {
      "constant": false,
      "inputs": [
        {
          "name": "from",
          "type": "address"
        },
        {
          "name": "value",
          "type": "uint256"
        },
        {
          "name": "data",
          "type": "bytes"
        }
      ],
      "name": "tokenFallback",
      "outputs": [],
      "payable": false,
      "stateMutability": "nonpayable",
      "type": "function"
    },
    {
      "constant": false,
      "inputs": [],
      "name": "destroy",
      "outputs": [],
      "payable": false,
      "stateMutability": "nonpayable",
      "type": "function"
    }
  ],
  "bytecode": "0x608060405234801561001057600080fd5b50604051604080611cd883398101604052805160209091015160008054600160a060020a0319908116331782556005829055600382905560049190915560018054600160a060020a0394851690831617905560028054939092169216919091179055611c57806100816000396000f30060806040526004361061008d5763ffffffff7c01000000000000000000000000000000000000000000000000000000006000350416630a3b626b81146100bc57806357aa4abc146100ee5780636312b9261461010c57806383197ef01461012d57806398af072c14610144578063a16216c714610174578063c0ee0b8a14610195578063d451a94b1461020b575b60405133903480156108fc02916000818181858888f193505050501580156100b9573d6000803e3d6000fd5b50005b3480156100c857600080fd5b506100da60043560ff60243516610220565b604080519115158252519081900360200190f35b3480156100fa57600080fd5b506100da60043560ff60243516610414565b34801561011857600080fd5b506100da60043560ff602435166044356105e0565b34801561013957600080fd5b50610142610bae565b005b34801561015057600080fd5b5061016260ff60043516602435610d41565b60408051918252519081900360200190f35b34801561018057600080fd5b506100da60043560ff60243516604435610efb565b3480156101a157600080fd5b50604080516020600460443581810135601f810184900484028501840190955284845261014294823573ffffffffffffffffffffffffffffffffffffffff16946024803595369594606494920191908190840183828082843750949750611a1a9650505050505050565b34801561021757600080fd5b50610162611afc565b6000821580159061023357506005548311155b8015610253575060008381526006602052604090205460ff908116908316105b80156102935750600083815260066020908152604080832060ff8616845260030190915290205473ffffffffffffffffffffffffffffffffffffffff1633145b151561030057604080517f08c379a000000000000000000000000000000000000000000000000000000000815260206004820152601060248201527f6e6f742073656174656420746865726500000000000000000000000000000000604482015290519081900360640190fd5b600083815260066020908152604080832060ff861684526004019091529020541561038c57604080517f08c379a000000000000000000000000000000000000000000000000000000000815260206004820152601060248201527f67616d6520696e2070726f677265737300000000000000000000000000000000604482015290519081900360640190fd5b600083815260066020908152604080832060ff8616808552600390910183529281902080547fffffffffffffffffffffffff000000000000000000000000000000000000000016905580514281529051869233927f61819087ed423c4cdee3cb49b253b86b87cd70f353111d9ac0ec3edb6214479d929081900390910190a450600192915050565b6000821580159061042757506005548311155b8015610447575060008381526006602052604090205460ff908116908316105b80156104da5750600083815260066020908152604080832060ff8616845260030190915290205473ffffffffffffffffffffffffffffffffffffffff1615806104da5750600083815260066020908152604080832060ff861684526004019091529020541580156104da5750600083815260066020908152604080832060ff861684526005019091529020546115180142115b151561054757604080517f08c379a000000000000000000000000000000000000000000000000000000000815260206004820152601660248201527f7461626c652073656174206973206f6363757069656400000000000000000000604482015290519081900360640190fd5b600083815260066020908152604080832060ff861680855260038201845282852080547fffffffffffffffffffffffff000000000000000000000000000000000000000016339081179091556005909201845293829020429081905582519081529151879391927fadbb19021ab91a73b766d01765493e8a7898700512a44a87ca0e6c4f4a9f744092908290030190a450600192915050565b600083158015906105f357506005548411155b8015610613575060008481526006602052604090205460ff908116908416105b80156106535750600084815260066020908152604080832060ff8716845260030190915290205473ffffffffffffffffffffffffffffffffffffffff1633145b15156106c057604080517f08c379a000000000000000000000000000000000000000000000000000000000815260206004820152601060248201527f6e6f742073656174656420746865726500000000000000000000000000000000604482015290519081900360640190fd5b600084815260066020908152604080832060ff871684526004019091529020541561074c57604080517f08c379a000000000000000000000000000000000000000000000000000000000815260206004820152601760248201527f67616d6520616c72656164792072656769737465726564000000000000000000604482015290519081900360640190fd5b600154604080517f9d4b6c5f00000000000000000000000000000000000000000000000000000000815233600482015260248101859052905173ffffffffffffffffffffffffffffffffffffffff90921691639d4b6c5f916044808201926020929091908290030181600087803b1580156107c657600080fd5b505af11580156107da573d6000803e3d6000fd5b505050506040513d60208110156107f057600080fd5b5051151561085f57604080517f08c379a000000000000000000000000000000000000000000000000000000000815260206004820152600f60248201527f67616d65206e6f74206163746976650000000000000000000000000000000000604482015290519081900360640190fd5b60008481526006602052604081206002015411156108fa576000848152600660205260409020600201546103840142106108fa57604080517f08c379a000000000000000000000000000000000000000000000000000000000815260206004820152601160248201527f546f6f206c61746520746f20656e746572000000000000000000000000000000604482015290519081900360640190fd5b6000848152600660205260408120600101541115610b0d5760008481526006602090815260408083206001015460025482517fdd62ed3e0000000000000000000000000000000000000000000000000000000081523360048201523060248201529251919473ffffffffffffffffffffffffffffffffffffffff9091169363dd62ed3e936044808201949293918390030190829087803b15801561099d57600080fd5b505af11580156109b1573d6000803e3d6000fd5b505050506040513d60208110156109c757600080fd5b50511015610a3657604080517f08c379a000000000000000000000000000000000000000000000000000000000815260206004820152600d60248201527f416e746520726571756972656400000000000000000000000000000000000000604482015290519081900360640190fd5b60025460008581526006602090815260408083206001015481517f23b872dd0000000000000000000000000000000000000000000000000000000081523360048201523060248201526044810191909152905173ffffffffffffffffffffffffffffffffffffffff909416936323b872dd93606480840194938390030190829087803b158015610ac557600080fd5b505af1158015610ad9573d6000803e3d6000fd5b505050506040513d6020811015610aef57600080fd5b50506000848152600660205260409020600101546003805490910190555b600084815260066020818152604080842060ff881685526004810183528185208790556005810183529084204290559287905252600201541515610b61576000848152600660205260409020426002909101555b60408051838152426020820152815160ff861692879233927fad08d92df26af5d7278edaccb56b00a52bcc37935983bfc4aac7fcf82cc09cde929181900390910190a45060019392505050565b6000805473ffffffffffffffffffffffffffffffffffffffff163314610bd357600080fd5b600254604080517f70a08231000000000000000000000000000000000000000000000000000000008152306004820152905173ffffffffffffffffffffffffffffffffffffffff909216916370a08231916024808201926020929091908290030181600087803b158015610c4657600080fd5b505af1158015610c5a573d6000803e3d6000fd5b505050506040513d6020811015610c7057600080fd5b505160025460008054604080517f23b872dd00000000000000000000000000000000000000000000000000000000815230600482015273ffffffffffffffffffffffffffffffffffffffff92831660248201526044810186905290519495509216926323b872dd926064808201936020939283900390910190829087803b158015610cfa57600080fd5b505af1158015610d0e573d6000803e3d6000fd5b505050506040513d6020811015610d2457600080fd5b505060005473ffffffffffffffffffffffffffffffffffffffff16ff5b6000600160ff841610801590610d5b5750600c60ff841611155b1515610dc857604080517f08c379a000000000000000000000000000000000000000000000000000000000815260206004820152601160248201527f73656174732063616e20626520312d3132000000000000000000000000000000604482015290519081900360640190fd5b620f4240821115610e3a57604080517f08c379a000000000000000000000000000000000000000000000000000000000815260206004820152601260248201527f416e7465206d61782031206d696c6c696f6e0000000000000000000000000000604482015290519081900360640190fd5b50600580546001908101918290556040805160608101825260ff868116808352602080840188815260008587018181528982526006845290879020955186547fffffffffffffffffffffffffffffffffffffffffffffffffffffffffffffff00169516949094178555519584019590955590516002909201919091558151908152429281019290925280518492849233927fda4a8c735e76fab8b57bd61345a3587923999cffecdc7b8fa5540acdf65bb8849281900390910190a492915050565b6000808080808080808a15801590610f1557506005548b11155b8015610f35575060008b81526006602052604090205460ff908116908b16105b8015610f75575060008b815260066020908152604080832060ff8e16845260030190915290205473ffffffffffffffffffffffffffffffffffffffff1633145b1515610fe257604080517f08c379a000000000000000000000000000000000000000000000000000000000815260206004820152601060248201527f6e6f742073656174656420746865726500000000000000000000000000000000604482015290519081900360640190fd5b60008b81526006602052604090206002015415801590611020575060008b815260066020908152604080832060ff8e16845260040190915290205489145b151561108d57604080517f08c379a000000000000000000000000000000000000000000000000000000000815260206004820152600d60248201527f4e6f7420696e20612067616d6500000000000000000000000000000000000000604482015290519081900360640190fd5b60008b815260066020526040902060020154610a8c014211965086806111565750600154604080517f9d4b6c5f000000000000000000000000000000000000000000000000000000008152336004820152602481018c9052905173ffffffffffffffffffffffffffffffffffffffff90921691639d4b6c5f916044808201926020929091908290030181600087803b15801561112857600080fd5b505af115801561113c573d6000803e3d6000fd5b505050506040513d602081101561115257600080fd5b5051155b15156111c357604080517f08c379a000000000000000000000000000000000000000000000000000000000815260206004820152601160248201527f47616d65207374696c6c20616374697665000000000000000000000000000000604482015290519081900360640190fd5b60008b815260066020908152604080832060ff8e1684526004908101835281842084905560015482517fff24446f0000000000000000000000000000000000000000000000000000000081529182018e9052915173ffffffffffffffffffffffffffffffffffffffff9092169363ff24446f9360248084019491939192918390030190829087803b15801561125757600080fd5b505af115801561126b573d6000803e3d6000fd5b505050506040513d602081101561128157600080fd5b505160008c8152600660205260408120600190810154909a509197509550869450156112ae5760016112b1565b60005b92505b8780156112d5575060008b81526006602052604090205460ff908116908616105b1561154f578960ff168560ff1614158015611324575060008b815260066020908152604080832060ff8916845260030190915290205473ffffffffffffffffffffffffffffffffffffffff1615155b801561134e575060008b815260066020908152604080832060ff8916845260040190915290205415155b1561154457868061142b575060015460008c815260066020908152604080832060ff8a16845260038101835281842054600491820184528285205483517f9d4b6c5f00000000000000000000000000000000000000000000000000000000815273ffffffffffffffffffffffffffffffffffffffff92831693810193909352602483015291519190941693639d4b6c5f9360448083019493928390030190829087803b1580156113fd57600080fd5b505af1158015611411573d6000803e3d6000fd5b505050506040513d602081101561142757600080fd5b5051155b975087156115445760015460008c815260066020908152604080832060ff8a168452600490810183528184205482517fff24446f00000000000000000000000000000000000000000000000000000000815291820152905173ffffffffffffffffffffffffffffffffffffffff9094169363ff24446f93602480840194938390030190829087803b1580156114bf57600080fd5b505af11580156114d3573d6000803e3d6000fd5b505050506040513d60208110156114e957600080fd5b505161ffff80821690881610801599509092506115445760008b815260066020526040812060010154948301941115611523576001830192505b60008b815260066020908152604080832060ff891684526004019091528120555b6001909401936112b4565b8715156115bd57604080517f08c379a000000000000000000000000000000000000000000000000000000000815260206004820152600d60248201527f496e76616c696420636c61696d00000000000000000000000000000000000000604482015290519081900360640190fd5b60008b8152600660205260408120600101541180156115df575060008360ff16115b15611814575060008a81526006602090815260408083206001015460025482517f70a08231000000000000000000000000000000000000000000000000000000008152306004820152925160ff881690920294859473ffffffffffffffffffffffffffffffffffffffff909216936370a08231936024808301949391928390030190829087803b15801561167257600080fd5b505af1158015611686573d6000803e3d6000fd5b505050506040513d602081101561169c57600080fd5b5051101561170b57604080517f08c379a000000000000000000000000000000000000000000000000000000000815260206004820152601260248201527f496e73756666696369656e742066756e64730000000000000000000000000000604482015290519081900360640190fd5b600380548290039055600254604080517f23b872dd00000000000000000000000000000000000000000000000000000000815230600482015233602482015260448101849052905173ffffffffffffffffffffffffffffffffffffffff909216916323b872dd916064808201926020929091908290030181600087803b15801561179457600080fd5b505af11580156117a8573d6000803e3d6000fd5b505050506040513d60208110156117be57600080fd5b5050604080518a815261ffff88166020820152808201839052426060820152905160ff8c16918d9133917fd5412514851822495a56bb0a1e1148ff00ac458b7720af4a19544d43931b65f8919081900360800190a45b60008461ffff161180156118d55750600354600254604080517f70a08231000000000000000000000000000000000000000000000000000000008152306004820152905161ffff8816909301612710019273ffffffffffffffffffffffffffffffffffffffff909216916370a08231916024808201926020929091908290030181600087803b1580156118a657600080fd5b505af11580156118ba573d6000803e3d6000fd5b505050506040513d60208110156118d057600080fd5b505110155b1561199a57600254604080517f23b872dd00000000000000000000000000000000000000000000000000000000815230600482015233602482015261ffff87166044820152905173ffffffffffffffffffffffffffffffffffffffff909216916323b872dd916064808201926020929091908290030181600087803b15801561195d57600080fd5b505af1158015611971573d6000803e3d6000fd5b505050506040513d602081101561198757600080fd5b50506004805461ffff861601905561199f565b600093505b60008b81526006602090815260408083206002019290925581518b815261ffff808a169282019290925290861681830152426060820152905160ff8c16918d9133917fa708d64826e457ce3a1d042c99dc58e138399893ed90c208ea895535dadc1cd4919081900360800190a4505050505050509392505050565b7ff43fa8d2d0fff08eb92df37460756b010147cac9cd47a7f6233cfef78764d38b83838342604051808573ffffffffffffffffffffffffffffffffffffffff1673ffffffffffffffffffffffffffffffffffffffff16815260200184815260200180602001838152602001828103825284818151815260200191508051906020019080838360005b83811015611aba578181015183820152602001611aa2565b50505050905090810190601f168015611ae75780820380516001836020036101000a031916815260200191505b509550505050505060405180910390a1505050565b600580546001908101808355604080516060810182528381526000602080830182815283850183815286845260068352858420945185547fffffffffffffffffffffffffffffffffffffffffffffffffffffffffffffff001660ff9091161785559051848801555160028401558180526003830181528382208054337fffffffffffffffffffffffff0000000000000000000000000000000000000000909116811790915592909601865282812042908190558351958652958501959095528151929493859391927fda4a8c735e76fab8b57bd61345a3587923999cffecdc7b8fa5540acdf65bb88492918290030190a4604080514281529051600091839133917fadbb19021ab91a73b766d01765493e8a7898700512a44a87ca0e6c4f4a9f7440919081900360200190a4905600a165627a7a723058205eb016dedee1b0060f7e1224ce0598fb40bfd45f92e88ddcc398042b2edf48080029",
  "source": "pragma solidity ^0.4.24;\nimport \"./IYatzyGame.sol\";\nimport \"./IYatzyCoin.sol\";\n\ncontract CoinGameYatzy {\n    \n    uint8 constant private MIN_SEATS = 1;\n    uint8 constant private MAX_SEATS = 12;\n    uint32 constant private MAX_ANTE = 1000000;//1 mil\n    uint32 constant private MIN_BALANCE = 10000;//10k\n    uint16 constant private MAX_GAME_TIME = 2700;//45 min\n    uint16 constant private MAX_ENTER_TIME = 900;//15 min\n    uint16 constant private MAX_IDLE_TIME = 5400;//90 min\n    \n    struct GameTable {\n        uint8 seats;\n        uint256 ante;\n        uint256 started;\n        mapping(uint8 => address) player;\n        mapping(uint8 => uint256) game;\n        mapping(uint8 => uint256) idle;\n    }\n    \n    address private _owner;\n    \n    IYatzyGame private _yatzyGame;\n    IYatzyCoin private _yatzyCoin;\n\n    uint256 private _potBalance;\n    uint256 private _totalScored;\n    \n    uint256 private _tableIndex;\n    mapping(uint256 => GameTable) private _table;\n    \n    event TableCreated (\n        address indexed account,\n        uint256 indexed tableId,\n        uint256 indexed ante,\n        uint8 seats,\n        uint256 timestamp\n    );\n    \n    event PlayerSit (\n        address indexed account,\n        uint256 indexed tableId,\n        uint8 indexed seat,\n        uint256 timestamp\n    );\n    \n    event PlayerLeave (\n        address indexed account,\n        uint256 indexed tableId,\n        uint8 indexed seat,\n        uint256 timestamp\n    );\n    \n    event PlayerGame (\n        address indexed account,\n        uint256 indexed tableId,\n        uint8 indexed seat,\n        uint256 gameId,\n        uint256 timestamp\n    );\n    \n    event PotReward (\n        address indexed account,\n        uint256 indexed tableId,\n        uint8 indexed seat,\n        uint256 gameId,\n        uint16 score,\n        uint256 reward,\n        uint256 timestamp\n    );\n    \n    event ScoreReward (\n        address indexed account,\n        uint256 indexed tableId,\n        uint8 indexed seat,\n        uint256 gameId,\n        uint16 score,\n        uint256 reward,\n        uint256 timestamp\n    );\n\n    event TokenFallback (\n        address from, \n        uint value, \n        bytes data,\n        uint256 timestamp\n    );\n    \n\n    constructor(address gameAddress, address coinAddress) public { \n        _owner = msg.sender;//remove in production\n        _tableIndex = 0;\n        _potBalance = 0;\n        _totalScored = 0;\n        _yatzyGame = IYatzyGame (gameAddress);\n        _yatzyCoin = IYatzyCoin (coinAddress);\n    }\n    \n    function createTable (uint8 seats, uint256 ante) external returns(uint256 tableId) {\n        require (seats >= MIN_SEATS && seats <= MAX_SEATS, \"seats can be 1-12\");\n        require (ante <= MAX_ANTE, \"Ante max 1 million\");\n        \n        tableId = ++_tableIndex;\n        _table[tableId] = GameTable (seats, ante, 0);\n        \n        emit TableCreated (\n            msg.sender,\n            tableId,\n            ante,\n            seats,\n            now\n        );\n    }\n    \n    function takeSeat (uint256 tableId, uint8 seat) external returns(bool) {\n        require (tableId != 0 && tableId <= _tableIndex && seat < _table[tableId].seats && \n            (_table[tableId].player[seat] == address(0) || //empty seat or\n                (_table[tableId].game[seat] == 0 && //player not in game and\n                    now > _table[tableId].idle[seat] + MAX_IDLE_TIME) //max idle time\n            ), \"table seat is occupied\");\n            \n        _table[tableId].player[seat] = msg.sender;\n        _table[tableId].idle[seat] = now;\n        \n        emit PlayerSit (\n            msg.sender,\n            tableId,\n            seat,\n            now\n        );\n        \n        return true;\n    }\n\n    function soloSeat () external returns(uint256 tableId) {\n\n        tableId = ++_tableIndex;\n        _table[tableId] = GameTable (1, 0, 0);\n        _table[tableId].player[0] = msg.sender;\n        _table[tableId].idle[0] = now;\n        \n        emit TableCreated (\n            msg.sender,\n            tableId,\n            0,\n            1,\n            now\n        );\n\n        emit PlayerSit (\n            msg.sender,\n            tableId,\n            0,\n            now\n        );\n    }\n    \n    function leaveSeat (uint256 tableId, uint8 seat) external returns(bool) {\n        require (tableId != 0 && tableId <= _tableIndex && seat < _table[tableId].seats &&\n            _table[tableId].player[seat] == msg.sender, \"not seated there\");\n        require (_table[tableId].game[seat] == 0, \"game in progress\");\n            \n        _table[tableId].player[seat] = address(0);\n       \n        emit PlayerLeave (\n            msg.sender,\n            tableId,\n            seat,\n            now\n        );\n        \n        return true;\n    }\n    \n    function registerGame (uint256 tableId, uint8 seat, uint256 gameId) external \n        returns(bool) {\n        require (tableId != 0 && tableId <= _tableIndex && seat < _table[tableId].seats &&\n            _table[tableId].player[seat] == msg.sender, \"not seated there\");\n        //require (_table[tableId].status == 0, \"game in progress\");\n        require (_table[tableId].game[seat] == 0, \"game already registered\");\n        require (_yatzyGame.verifyActiveGame(msg.sender, gameId), \"game not active\");\n        if (_table[tableId].started > 0)\n            require (now < _table[tableId].started + MAX_ENTER_TIME, \"Too late to enter\");\n        \n        if (_table[tableId].ante > 0) {\n            require (_yatzyCoin.allowance(msg.sender, address(this)) >= _table[tableId].ante, \n                \"Ante required\");\n            _yatzyCoin.transferFrom(msg.sender, address(this), _table[tableId].ante);\n            _potBalance += _table[tableId].ante;\n        }\n\n        _table[tableId].game[seat] = gameId;\n        _table[tableId].idle[seat] = now;\n        if (_table[tableId].started == 0) _table[tableId].started = now;\n        \n        emit PlayerGame (\n            msg.sender,\n            tableId,\n            seat,\n            gameId,\n            now\n        );\n        \n        return true;\n    }\n    \n    function claimGame (uint256 tableId, uint8 seat, uint256 gameId) external \n        returns(bool validClaim) {\n        require (tableId != 0 && tableId <= _tableIndex && seat < _table[tableId].seats &&\n            _table[tableId].player[seat] == msg.sender, \"not seated there\");\n        \n        require (_table[tableId].started != 0 && \n            _table[tableId].game[seat] == gameId, \"Not in a game\");\n        bool timeIsUp = (now > _table[tableId].started + MAX_GAME_TIME);\n        require (timeIsUp || !_yatzyGame.verifyActiveGame(msg.sender, gameId), \n            \"Game still active\");\n        \n         _table[tableId].game[seat] = 0;\n         \n        uint16 score = _yatzyGame.gameScore(gameId);\n        validClaim = true;\n        uint8 seat_ = 0;\n        uint16 totalScore = score;\n        uint8 anteMult = (_table[tableId].ante == 0) ? 0 : 1;\n        while (validClaim && seat_ < _table[tableId].seats) {\n            if (seat_ != seat && _table[tableId].player[seat_] != address(0) && \n                _table[tableId].game[seat_] != 0) {\n                    \n                validClaim = (timeIsUp || !_yatzyGame.verifyActiveGame(\n                    _table[tableId].player[seat_], _table[tableId].game[seat_]));\n                if (validClaim) {\n                    uint16 score_ = _yatzyGame.gameScore(_table[tableId].game[seat_]);\n                    validClaim = (score >= score_);//first claim gets the tie\n                    if (validClaim) {\n                        totalScore += score_;\n                        if (_table[tableId].ante > 0) anteMult += 1;\n                        _table[tableId].game[seat_] = 0;\n                    }\n                }\n            }\n            seat_++;\n        }\n        require (validClaim, \"Invalid claim\");\n\n        //If table has ante, pay out pot\n        if (_table[tableId].ante > 0 && anteMult > 0) {\n            uint256 potAmount =  _table[tableId].ante * anteMult;\n            require (_yatzyCoin.balanceOf(address(this)) >= potAmount, \"Insufficient funds\");\n            _potBalance -= potAmount;\n            _yatzyCoin.transferFrom(address(this), msg.sender, potAmount);\n            emit PotReward (\n                msg.sender,\n                tableId,\n                seat,\n                gameId,\n                score,\n                potAmount,\n                now\n            );\n        }\n\n        //If contract has available funds, give total score to winner.\n        if (totalScore > 0 && \n            _yatzyCoin.balanceOf(address(this)) >= (totalScore + _potBalance + MIN_BALANCE)) {\n            _yatzyCoin.transferFrom(address(this), msg.sender, totalScore);\n            _totalScored += totalScore;\n        } else totalScore = 0;\n\n        _table[tableId].started = 0;\n\n        emit ScoreReward (\n            msg.sender,\n            tableId,\n            seat,\n            gameId,\n            score,\n            totalScore,\n            now\n        );\n    }\n\n    function tokenFallback(address from, uint value, bytes memory data) public {\n        emit TokenFallback (\n            from,\n            value,\n            data,\n            now\n        );\n    }\n\n    //remove in production\n    function destroy() external {\n       require (msg.sender == _owner);\n       uint256 balance = _yatzyCoin.balanceOf(address(this));\n       _yatzyCoin.transferFrom(address(this), _owner, balance);\n       selfdestruct(_owner);\n    }\n    \n    //Return to sender, any abstract transfers\n    function () external payable { msg.sender.transfer(msg.value); }\n\n}",
  "sourcePath": "C:/Users/Brian/workspace/web3/coin-game-yatzy/contracts/CoinGameYatzy.sol",
  "compiler": {
    "name": "solc",
    "version": "0.4.24+commit.e67f0147.Emscripten.clang"
  },
  "schemaVersion": "3.0.9",
  "updatedAt": "2019-08-04T08:38:45.017Z",
  "devdoc": {
    "methods": {}
  },
  "userdoc": {
    "methods": {}
  }
}