{
  "contractName": "DiceGameYatzy",
  "abi": [
    {
      "inputs": [
        {
          "name": "diceAddress",
          "type": "address"
        }
      ],
      "payable": false,
      "stateMutability": "nonpayable",
      "type": "constructor"
    },
    {
      "payable": true,
      "stateMutability": "payable",
      "type": "fallback"
    },
    {
      "anonymous": false,
      "inputs": [
        {
          "indexed": true,
          "name": "account",
          "type": "address"
        },
        {
          "indexed": true,
          "name": "gameId",
          "type": "uint256"
        },
        {
          "indexed": false,
          "name": "verify",
          "type": "uint8"
        },
        {
          "indexed": false,
          "name": "timestamp",
          "type": "uint256"
        }
      ],
      "name": "GameStarted",
      "type": "event"
    },
    {
      "anonymous": false,
      "inputs": [
        {
          "indexed": true,
          "name": "account",
          "type": "address"
        },
        {
          "indexed": true,
          "name": "gameId",
          "type": "uint256"
        },
        {
          "indexed": false,
          "name": "tally",
          "type": "uint8[]"
        },
        {
          "indexed": false,
          "name": "score",
          "type": "uint16"
        },
        {
          "indexed": false,
          "name": "turn",
          "type": "uint8"
        },
        {
          "indexed": false,
          "name": "timestamp",
          "type": "uint256"
        }
      ],
      "name": "GameContinued",
      "type": "event"
    },
    {
      "anonymous": false,
      "inputs": [
        {
          "indexed": true,
          "name": "account",
          "type": "address"
        },
        {
          "indexed": true,
          "name": "gameId",
          "type": "uint256"
        },
        {
          "indexed": false,
          "name": "tally",
          "type": "uint8[]"
        },
        {
          "indexed": false,
          "name": "score",
          "type": "uint16"
        },
        {
          "indexed": false,
          "name": "timestamp",
          "type": "uint256"
        }
      ],
      "name": "GameEnded",
      "type": "event"
    },
    {
      "constant": false,
      "inputs": [
        {
          "name": "hash",
          "type": "bytes32"
        },
        {
          "name": "verifyBlocks",
          "type": "uint8"
        }
      ],
      "name": "startGame",
      "outputs": [
        {
          "name": "gameId",
          "type": "uint256"
        }
      ],
      "payable": false,
      "stateMutability": "nonpayable",
      "type": "function"
    },
    {
      "constant": false,
      "inputs": [
        {
          "name": "turnKey",
          "type": "bytes32"
        },
        {
          "name": "nextHash",
          "type": "bytes32"
        },
        {
          "name": "bankFilter",
          "type": "uint8[]"
        },
        {
          "name": "cat",
          "type": "uint8"
        }
      ],
      "name": "continueGame",
      "outputs": [
        {
          "name": "completed",
          "type": "bool"
        }
      ],
      "payable": false,
      "stateMutability": "nonpayable",
      "type": "function"
    },
    {
      "constant": false,
      "inputs": [],
      "name": "abortGame",
      "outputs": [
        {
          "name": "completed",
          "type": "bool"
        }
      ],
      "payable": false,
      "stateMutability": "nonpayable",
      "type": "function"
    },
    {
      "constant": false,
      "inputs": [
        {
          "name": "gameId",
          "type": "uint256"
        }
      ],
      "name": "deleteGame",
      "outputs": [],
      "payable": false,
      "stateMutability": "nonpayable",
      "type": "function"
    },
    {
      "constant": false,
      "inputs": [],
      "name": "destroy",
      "outputs": [],
      "payable": false,
      "stateMutability": "nonpayable",
      "type": "function"
    },
    {
      "constant": true,
      "inputs": [
        {
          "name": "turnKey",
          "type": "bytes32"
        }
      ],
      "name": "getTurnBank",
      "outputs": [
        {
          "name": "bank",
          "type": "uint8[]"
        }
      ],
      "payable": false,
      "stateMutability": "view",
      "type": "function"
    },
    {
      "constant": true,
      "inputs": [
        {
          "name": "turnKey",
          "type": "bytes32"
        }
      ],
      "name": "getTurnRoll",
      "outputs": [
        {
          "name": "roll",
          "type": "uint8[]"
        }
      ],
      "payable": false,
      "stateMutability": "view",
      "type": "function"
    },
    {
      "constant": true,
      "inputs": [
        {
          "name": "gameId",
          "type": "uint256"
        }
      ],
      "name": "getGame",
      "outputs": [
        {
          "name": "account",
          "type": "address"
        },
        {
          "name": "score",
          "type": "uint16"
        },
        {
          "name": "verify",
          "type": "uint8"
        },
        {
          "name": "turns",
          "type": "uint8"
        },
        {
          "name": "tally",
          "type": "uint8[]"
        }
      ],
      "payable": false,
      "stateMutability": "view",
      "type": "function"
    },
    {
      "constant": true,
      "inputs": [
        {
          "name": "account",
          "type": "address"
        }
      ],
      "name": "getAccount",
      "outputs": [
        {
          "name": "gameId",
          "type": "uint256"
        },
        {
          "name": "total",
          "type": "uint256"
        },
        {
          "name": "score",
          "type": "uint256"
        }
      ],
      "payable": false,
      "stateMutability": "view",
      "type": "function"
    },
    {
      "constant": true,
      "inputs": [
        {
          "name": "gameId",
          "type": "uint256"
        }
      ],
      "name": "gameScore",
      "outputs": [
        {
          "name": "score",
          "type": "uint16"
        }
      ],
      "payable": false,
      "stateMutability": "view",
      "type": "function"
    },
    {
      "constant": true,
      "inputs": [
        {
          "name": "account",
          "type": "address"
        },
        {
          "name": "gameId",
          "type": "uint256"
        }
      ],
      "name": "verifyActiveGame",
      "outputs": [
        {
          "name": "verified",
          "type": "bool"
        }
      ],
      "payable": false,
      "stateMutability": "view",
      "type": "function"
    }
  ],
  "bytecode": "0x608060405234801561001057600080fd5b50604051602080612b2e833981016040525160008054600160a060020a03199081163317825560029190915560018054600160a060020a0390931692909116919091179055612aca806100646000396000f3006080604052600436106100ae5763ffffffff7c01000000000000000000000000000000000000000000000000000000006000350416630ce6bf3f81146100dd578063248a55a1146101455780636f0db01c1461015f57806383197ef01461017757806390506f201461018c5780639d4b6c5f146101b5578063a0f93048146101e6578063a2f77bcc14610216578063f069f273146102de578063fbcbc0f11461030c578063ff24446f14610358575b60405133903480156108fc02916000818181858888f193505050501580156100da573d6000803e3d6000fd5b50005b3480156100e957600080fd5b506100f5600435610387565b60408051602080825283518183015283519192839290830191858101910280838360005b83811015610131578181015183820152602001610119565b505050509050019250505060405180910390f35b34801561015157600080fd5b5061015d600435610529565b005b34801561016b57600080fd5b506100f5600435610602565b34801561018357600080fd5b5061015d6106f5565b34801561019857600080fd5b506101a1610734565b604080519115158252519081900360200190f35b3480156101c157600080fd5b506101a173ffffffffffffffffffffffffffffffffffffffff600435166024356109e2565b3480156101f257600080fd5b5061020460043560ff60243516610a3f565b60408051918252519081900360200190f35b34801561022257600080fd5b5061022e600435610e16565b604051808673ffffffffffffffffffffffffffffffffffffffff1673ffffffffffffffffffffffffffffffffffffffff1681526020018561ffff1661ffff1681526020018460ff1660ff1681526020018360ff1660ff16815260200180602001828103825283818151815260200191508051906020019060200280838360005b838110156102c65781810151838201526020016102ae565b50505050905001965050505050505060405180910390f35b3480156102ea57600080fd5b506101a16004803590602480359160443591820191013560ff60643516610f13565b34801561031857600080fd5b5061033a73ffffffffffffffffffffffffffffffffffffffff60043516611707565b60408051938452602084019290925282820152519081900360600190f35b34801561036457600080fd5b5061037060043561173c565b6040805161ffff9092168252519081900360200190f35b33600090815260046020526040902054606090151561040757604080517f08c379a000000000000000000000000000000000000000000000000000000000815260206004820152600d60248201527f4e6f7420696e20612067616d6500000000000000000000000000000000000000604482015290519081900360640190fd5b600154604080517fd0b685a900000000000000000000000000000000000000000000000000000000815260048101859052905173ffffffffffffffffffffffffffffffffffffffff9092169163d0b685a99160248082019260009290919082900301818387803b15801561047a57600080fd5b505af115801561048e573d6000803e3d6000fd5b505050506040513d6000823e601f3d9081017fffffffffffffffffffffffffffffffffffffffffffffffffffffffffffffffe016820160405260208110156104d557600080fd5b8101908080516401000000008111156104ed57600080fd5b8201602081018481111561050057600080fd5b815185602082028301116401000000008211171561051d57600080fd5b50909695505050505050565b60008181526003602052604090205473ffffffffffffffffffffffffffffffffffffffff1633146105bb57604080517f08c379a000000000000000000000000000000000000000000000000000000000815260206004820152600c60248201527f496e76616c69642047616d650000000000000000000000000000000000000000604482015290519081900360640190fd5b600081815260036020526040812080547fffffffffffffffff000000000000000000000000000000000000000000000000168155906105fd600183018261297b565b505050565b33600090815260046020526040902054606090151561068257604080517f08c379a000000000000000000000000000000000000000000000000000000000815260206004820152600d60248201527f4e6f7420696e20612067616d6500000000000000000000000000000000000000604482015290519081900360640190fd5b600154604080517f1994331900000000000000000000000000000000000000000000000000000000815260048101859052905173ffffffffffffffffffffffffffffffffffffffff9092169163199433199160248082019260009290919082900301818387803b15801561047a57600080fd5b60005473ffffffffffffffffffffffffffffffffffffffff16331461071957600080fd5b60005473ffffffffffffffffffffffffffffffffffffffff16ff5b336000908152600460205260408120548190156109de57503360009081526004602081815260408084205460015482517fa65372b90000000000000000000000000000000000000000000000000000000081529251919573ffffffffffffffffffffffffffffffffffffffff9091169463a65372b994848201949093929083900390910190829087803b1580156107ca57600080fd5b505af11580156107de573d6000803e3d6000fd5b505050506040513d60208110156107f457600080fd5b505060008181526003602052604081205474010000000000000000000000000000000000000000900461ffff161180156108435750336000908152600460205260409020600190810154908101115b8015610891575033600081815260046020818152604080842060020154868552600383529084205494909352527401000000000000000000000000000000000000000090910461ffff168101115b156108ec573360008181526004602081815260408084206001808201805490910190558685526003835290842054949093525260020180547401000000000000000000000000000000000000000090920461ffff1690910190555b3360008181526004602090815260408083208390558483526003825291829020805483517401000000000000000000000000000000000000000090910461ffff16928101839052429381018490526060808252600190920180549282018390528695947f0bf898cc8413c1c5ef328b07cc3bff6187110f6851fb23d6686058f8291328ec9491939192909181906080820190869080156109c957602002820191906000526020600020906000905b825461010083900a900460ff1681526020600192830181810494850194909303909202910180841161099a5790505b505094505050505060405180910390a3600191505b5090565b600073ffffffffffffffffffffffffffffffffffffffff831615801590610a0857508115155b8015610a38575073ffffffffffffffffffffffffffffffffffffffff831660009081526004602052604090205482145b9392505050565b3360009081526004602052604081205415610abb57604080517f08c379a000000000000000000000000000000000000000000000000000000000815260206004820152601160248201527f416c726561647920696e20612067616d65000000000000000000000000000000604482015290519081900360640190fd5b60ff82161515610b2c57604080517f08c379a000000000000000000000000000000000000000000000000000000000815260206004820152601860248201527f766572696679426c6f636b73206d757374206265203e20300000000000000000604482015290519081900360640190fd5b600154604080517f8fbecfde0000000000000000000000000000000000000000000000000000000081526004810186905260ff85166024820152905173ffffffffffffffffffffffffffffffffffffffff90921691638fbecfde9160448082019260009290919082900301818387803b158015610ba857600080fd5b505af1158015610bbc573d6000803e3d6000fd5b505060028054600190810191829055336000908152600460205260409020015490935015159150610c2a905057604080516060810182528281526000602080830182815283850183815233845260049092529390912091518255915160018201559051600290910155610c3d565b3360009081526004602052604090208190555b6040805160a08101825233815260006020820181905260ff85168284015260608201528151600f80825261020082019093529091608083019190816020016020820280388339505050905260008281526003602090815260409182902083518154858401519486015160608701517fffffffffffffffffffffffff000000000000000000000000000000000000000090921673ffffffffffffffffffffffffffffffffffffffff909316929092177fffffffffffffffffffff0000ffffffffffffffffffffffffffffffffffffffff167401000000000000000000000000000000000000000061ffff90961695909502949094177fffffffffffffffffff00ffffffffffffffffffffffffffffffffffffffffffff1676010000000000000000000000000000000000000000000060ff92831602177fffffffffffffffff00ffffffffffffffffffffffffffffffffffffffffffffff1677010000000000000000000000000000000000000000000000919094160292909217825560808301518051610dcf92600185019201906129a3565b50506040805160ff85168152426020820152815184935033927fbcb4b60b2dee985720fc934eba20f78c8a606281e67343d662180914e6e509aa928290030190a392915050565b60008181526003602090815260409182902080546001909101805484518185028101850190955280855273ffffffffffffffffffffffffffffffffffffffff83169461ffff740100000000000000000000000000000000000000008504169460ff760100000000000000000000000000000000000000000000860481169577010000000000000000000000000000000000000000000000900416936060939091830182828015610f0357602002820191906000526020600020906000905b825461010083900a900460ff16815260206001928301818104948501949093039092029101808411610ed45790505b5050505050905091939590929450565b336000908152600460205260408120548190606090829081901515610f9957604080517f08c379a000000000000000000000000000000000000000000000000000000000815260206004820152600d60248201527f4e6f7420696e20612067616d6500000000000000000000000000000000000000604482015290519081900360640190fd5b336000908152600460205260409020549350600f60ff8716108015610ffb57506000848152600360205260409020600101805460ff8816908110610fd957fe5b60009182526020918290209181049091015460ff601f9092166101000a900416155b151561106857604080517f08c379a000000000000000000000000000000000000000000000000000000000815260206004820152601760248201527f43617465676f727920616c72656164792073636f726564000000000000000000604482015290519081900360640190fd5b6001546040517f540b3ce6000000000000000000000000000000000000000000000000000000008152600481018c8152602482018c9052606060448301908152606483018b905273ffffffffffffffffffffffffffffffffffffffff9093169263540b3ce6928e928e928e928e929190608401846020850280828437820191505095505050505050600060405180830381600087803b15801561110a57600080fd5b505af115801561111e573d6000803e3d6000fd5b505050506040513d6000823e601f3d9081017fffffffffffffffffffffffffffffffffffffffffffffffffffffffffffffffe0168201604090815281101561116557600080fd5b81019080805164010000000081111561117d57600080fd5b8201602081018481111561119057600080fd5b81518560208202830111640100000000821117156111ad57600080fd5b5050602090910151909550935050821590506116fa576111cd868461176a565b905060ff81161561128d576000848152600360205260409020600101805482919060ff89169081106111fb57fe5b6000918252602080832081830401805460ff958616601f9094166101000a9384029386021916929092179091558682526003905260409020805461ffff74010000000000000000000000000000000000000000808304821694861694909401169092027fffffffffffffffffffff0000ffffffffffffffffffffffffffffffffffffffff9092169190911790556112db565b6000848152600360205260409020600101805460ff91908883169081106112b057fe5b90600052602060002090602091828204019190066101000a81548160ff021916908360ff1602179055505b6000848152600360205260409020805460ff770100000000000000000000000000000000000000000000008083048216600101821681027fffffffffffffffff00ffffffffffffffffffffffffffffffffffffffffffffff9093169290921792839055600f919092049091161015611512576001546000858152600360205260408082205481517f8fbecfde000000000000000000000000000000000000000000000000000000008152600481018e905276010000000000000000000000000000000000000000000090910460ff166024820152905173ffffffffffffffffffffffffffffffffffffffff90931692638fbecfde9260448084019391929182900301818387803b1580156113ee57600080fd5b505af1158015611402573d6000803e3d6000fd5b5050506000858152600360209081526040918290208054835174010000000000000000000000000000000000000000820461ffff169381018490527701000000000000000000000000000000000000000000000090910460ff1693810184905242606082018190526080808352600190930180549383018490528a965033957ffd3ff4430957bcac0e4b04e8e7b2f1c907fb3a8c2bef7aa390162b81c8f99b179591949193909291819060a0820190879080156114fc57602002820191906000526020600020906000905b825461010083900a900460ff168152602060019283018181049485019490930390920291018084116114cd5790505b50509550505050505060405180910390a36116fa565b60008481526003602052604081205474010000000000000000000000000000000000000000900461ffff1611801561155f5750336000908152600460205260409020600190810154908101115b80156115ad575033600081815260046020818152604080842060020154898552600383529084205494909352527401000000000000000000000000000000000000000090910461ffff168101115b15611608573360008181526004602081815260408084206001808201805490910190558985526003835290842054949093525260020180547401000000000000000000000000000000000000000090920461ffff1690910190555b3360008181526004602090815260408083208390558783526003825291829020805483517401000000000000000000000000000000000000000090910461ffff16928101839052429381018490526060808252600190920180549282018390528995947f0bf898cc8413c1c5ef328b07cc3bff6187110f6851fb23d6686058f8291328ec9491939192909181906080820190869080156116e557602002820191906000526020600020906000905b825461010083900a900460ff168152602060019283018181049485019490930390920291018084116116b65790505b505094505050505060405180910390a3600194505b5050505095945050505050565b73ffffffffffffffffffffffffffffffffffffffff166000908152600460205260409020805460018201546002909201549092565b60009081526003602052604090205474010000000000000000000000000000000000000000900461ffff1690565b600060ff83161561295b578260ff16600114612939578260ff16600214612917578260ff166003146128f5578260ff166004146128d3578260ff166005146128b1578260ff166006146127ad578260ff1660071461230b578260ff16600814612207578260ff16600914612103578260ff16600a14612035578260ff16600b14611f67578260ff16600c146119b6578260ff16600d146118c6578260ff16600e146118165760006118c1565b81600081518110151561182557fe5b6020908102909101015182518390600190811061183e57fe5b9060200190602002015160020283600281518110151561185a57fe5b9060200190602002015160030284600381518110151561187657fe5b9060200190602002015160040285600481518110151561189257fe5b906020019060200201516005028660058151811015156118ae57fe5b9060200190602002015160060201010101015b6119b1565b8160058151811015156118d557fe5b9060200190602002015160ff166005148061190b57508160048151811015156118fa57fe5b9060200190602002015160ff166005145b80611931575081600381518110151561192057fe5b9060200190602002015160ff166005145b80611957575081600281518110151561194657fe5b9060200190602002015160ff166005145b8061197d575081600181518110151561196c57fe5b9060200190602002015160ff166005145b806119a3575081600081518110151561199257fe5b9060200190602002015160ff166005145b6119ae5760006119b1565b60325b611f62565b8160058151811015156119c557fe5b9060200190602002015160ff16600314611e9b578160048151811015156119e857fe5b9060200190602002015160ff16600314611dd757816003815181101515611a0b57fe5b9060200190602002015160ff16600314611d1357816002815181101515611a2e57fe5b9060200190602002015160ff16600314611c4757816001815181101515611a5157fe5b9060200190602002015160ff16600314611b6d57816000815181101515611a7457fe5b9060200190602002015160ff16600314611a8f576000611b68565b816005815181101515611a9e57fe5b9060200190602002015160ff16600214611b6557816004815181101515611ac157fe5b9060200190602002015160ff16600214611b5d57816003815181101515611ae457fe5b9060200190602002015160ff16600214611b5557816002815181101515611b0757fe5b9060200190602002015160ff16600214611b4d57816001815181101515611b2a57fe5b9060200190602002015160ff16600214611b45576000611b48565b60075b611b50565b60095b611b58565b600b5b611b60565b600d5b611b68565b600f5b611c42565b816005815181101515611b7c57fe5b9060200190602002015160ff16600214611c3f57816004815181101515611b9f57fe5b9060200190602002015160ff16600214611c3857816003815181101515611bc257fe5b9060200190602002015160ff16600214611c3157816002815181101515611be557fe5b9060200190602002015160ff16600214611c2a57816000815181101515611c0857fe5b9060200190602002015160ff16600214611c23576000611b50565b6008611b58565b600c611b60565b600e611b68565b6010611c42565b60125b611d0e565b816005815181101515611c5657fe5b9060200190602002015160ff16600214611d0b57816004815181101515611c7957fe5b9060200190602002015160ff16600214611d0457816003815181101515611c9c57fe5b9060200190602002015160ff16600214611cfd57816001815181101515611cbf57fe5b9060200190602002015160ff16600214611b5d57816000815181101515611ce257fe5b9060200190602002015160ff16600214611b55576000611b58565b6011611c42565b6013611d0e565b60155b6118c1565b816005815181101515611d2257fe5b9060200190602002015160ff16600214611dd057816004815181101515611d4557fe5b9060200190602002015160ff16600214611dc957816002815181101515611d6857fe5b9060200190602002015160ff16600214611c3f57816001815181101515611d8b57fe5b9060200190602002015160ff16600214611c3857816000815181101515611dae57fe5b9060200190602002015160ff16600214611c31576000611b60565b60166118c1565b60186119b1565b816005815181101515611de657fe5b9060200190602002015160ff16600214611e9457816003815181101515611e0957fe5b9060200190602002015160ff16600214611e8d57816002815181101515611e2c57fe5b9060200190602002015160ff16600214611d0b57816001815181101515611e4f57fe5b9060200190602002015160ff16600214611d0457816000815181101515611e7257fe5b9060200190602002015160ff16600214611cfd576000611b68565b60176119b1565b601b611f62565b816004815181101515611eaa57fe5b9060200190602002015160ff16600214611f5f57816003815181101515611ecd57fe5b9060200190602002015160ff16600214611f5857816002815181101515611ef057fe5b9060200190602002015160ff16600214611dd057816001815181101515611f1357fe5b9060200190602002015160ff16600214611dc957816000815181101515611f3657fe5b9060200190602002015160ff16600214611f51576000611c42565b6014611d0e565b601a611f62565b601c5b612030565b816005815181101515611f7657fe5b9060200190602002015160ff166001148015611fad5750816004815181101515611f9c57fe5b9060200190602002015160ff166001145b8015611fd45750816003815181101515611fc357fe5b9060200190602002015160ff166001145b8015611ffb5750816002815181101515611fea57fe5b9060200190602002015160ff166001145b8015612022575081600181518110151561201157fe5b9060200190602002015160ff166001145b61202d576000612030565b60145b6120fe565b81600481518110151561204457fe5b9060200190602002015160ff16600114801561207b575081600381518110151561206a57fe5b9060200190602002015160ff166001145b80156120a2575081600281518110151561209157fe5b9060200190602002015160ff166001145b80156120c957508160018151811015156120b857fe5b9060200190602002015160ff166001145b80156120f057508160008151811015156120df57fe5b9060200190602002015160ff166001145b6120fb5760006120fe565b600f5b612202565b600382600581518110151561211457fe5b9060200190602002015160ff16116121ff57600382600481518110151561213757fe5b9060200190602002015160ff16116121f857600382600381518110151561215a57fe5b9060200190602002015160ff16116121f157600382600281518110151561217d57fe5b9060200190602002015160ff16116121ea5760038260018151811015156121a057fe5b9060200190602002015160ff16116121e35760038260008151811015156121c357fe5b9060200190602002015160ff16116121dc5760006118c1565b60046119b1565b6008611f62565b600c612030565b60106120fe565b6014612202565b60185b612306565b600282600581518110151561221857fe5b9060200190602002015160ff161161230357600282600481518110151561223b57fe5b9060200190602002015160ff16116122fc57600282600381518110151561225e57fe5b9060200190602002015160ff16116122f557600282600281518110151561228157fe5b9060200190602002015160ff16116122ee5760028260018151811015156122a457fe5b9060200190602002015160ff16116122e75760028260008151811015156122c757fe5b9060200190602002015160ff16116122e05760006119b1565b6003611f62565b6006612030565b60096120fe565b600c612202565b600f612306565b60125b6127a8565b600182600581518110151561231c57fe5b9060200190602002015160ff161180156123515750600182600481518110151561234257fe5b9060200190602002015160ff16115b6127a557600182600581518110151561236657fe5b9060200190602002015160ff1611801561239b5750600182600381518110151561238c57fe5b9060200190602002015160ff16115b61279e5760018260058151811015156123b057fe5b9060200190602002015160ff161180156123e5575060018260028151811015156123d657fe5b9060200190602002015160ff16115b80612431575060018260048151811015156123fc57fe5b9060200190602002015160ff161180156124315750600182600381518110151561242257fe5b9060200190602002015160ff16115b61279757600182600581518110151561244657fe5b9060200190602002015160ff1611801561247b5750600182600181518110151561246c57fe5b9060200190602002015160ff16115b806124c75750600182600481518110151561249257fe5b9060200190602002015160ff161180156124c7575060018260028151811015156124b857fe5b9060200190602002015160ff16115b6127905760018260058151811015156124dc57fe5b9060200190602002015160ff161180156125115750600182600081518110151561250257fe5b9060200190602002015160ff16115b8061255d5750600182600481518110151561252857fe5b9060200190602002015160ff1611801561255d5750600182600181518110151561254e57fe5b9060200190602002015160ff16115b806125a95750600182600381518110151561257457fe5b9060200190602002015160ff161180156125a95750600182600281518110151561259a57fe5b9060200190602002015160ff16115b6127895760018260048151811015156125be57fe5b9060200190602002015160ff161180156125f3575060018260008151811015156125e457fe5b9060200190602002015160ff16115b8061263f5750600182600381518110151561260a57fe5b9060200190602002015160ff1611801561263f5750600182600181518110151561263057fe5b9060200190602002015160ff16115b6121ea57600182600381518110151561265457fe5b9060200190602002015160ff161180156126895750600182600081518110151561267a57fe5b9060200190602002015160ff16115b806126d5575060018260028151811015156126a057fe5b9060200190602002015160ff161180156126d5575060018260018151811015156126c657fe5b9060200190602002015160ff16115b6127825760018260028151811015156126ea57fe5b9060200190602002015160ff1611801561271f5750600182600081518110151561271057fe5b9060200190602002015160ff16115b61277b57600182600181518110151561273457fe5b9060200190602002015160ff161180156127695750600182600081518110151561275a57fe5b9060200190602002015160ff16115b612774576000611d0e565b60066118c1565b60086119b1565b600a611f62565b600e6120fe565b6010612202565b6012612306565b60146127a8565b60165b6128ac565b60018260058151811015156127be57fe5b9060200190602002015160ff16116128a95760018260048151811015156127e157fe5b9060200190602002015160ff16116128a257600182600381518110151561280457fe5b9060200190602002015160ff161161289b57600182600281518110151561282757fe5b9060200190602002015160ff161161289457600182600181518110151561284a57fe5b9060200190602002015160ff161161288d57600182600081518110151561286d57fe5b9060200190602002015160ff1611612886576000612030565b60026120fe565b6004612202565b6006612306565b60086127a8565b600a6128ac565b600c5b6128ce565b8160058151811015156128c057fe5b906020019060200201516006025b6128f0565b8160048151811015156128e257fe5b906020019060200201516005025b612912565b81600381518110151561290457fe5b906020019060200201516004025b612934565b81600281518110151561292657fe5b906020019060200201516003025b612956565b81600181518110151561294857fe5b906020019060200201516002025b610a38565b81600081518110151561296a57fe5b906020019060200201519392505050565b50805460008255601f0160209004906000526020600020908101906129a09190612a45565b50565b82805482825590600052602060002090601f01602090048101928215612a395791602002820160005b83821115612a0a57835183826101000a81548160ff021916908360ff16021790555092602001926001016020816000010492830192600103026129cc565b8015612a375782816101000a81549060ff0219169055600101602081600001049283019260010302612a0a565b505b506109de929150612a62565b612a5f91905b808211156109de5760008155600101612a4b565b90565b612a5f91905b808211156109de5780547fffffffffffffffffffffffffffffffffffffffffffffffffffffffffffffff00168155600101612a685600a165627a7a72305820b8b1e2f652af003be551be7862a467b8d19649796fc122be4b754d0b2d670c390029",
  "source": "pragma solidity ^0.4.24;\n\ninterface IBlockDice65Turn3 {\n    function startTurn (bytes32 hash, uint8 verifyBlocks) external;\n    function continueTurn (bytes32 turnKey, bytes32 nextHash, uint8[] bankFilter) external \n        returns(uint8[] memory bank, bool turnComplete);\n    function abortTurn () external returns(bool turnComplete);\n    function turnComplete() external view returns (bool isComplete);\n    function getBank (bytes32 turnKey) external view returns(uint8[] memory bank);\n    function getRoll (bytes32 turnKey) external view returns(uint8[] memory roll);\n}\n\ncontract DiceGameYatzy {\n\n    struct Game {\n        address account;\n        uint16 score;\n        uint8 verify;\n        uint8 turns;\n        uint8[] tally;\n    }\n\n    struct Account {\n        uint256 game;\n        uint256 total;\n        uint256 score;\n    }\n    \n    address private _owner;//remove in production\n    \n    IBlockDice65Turn3 private _dice;\n    \n    uint256 private _gameIndex;\n    mapping(uint256 => Game) private _game;\n    mapping(address => Account) private _account; \n    \n    event GameStarted (\n        address indexed account,\n        uint256 indexed gameId,\n        uint8 verify,\n        uint256 timestamp\n    );\n    \n    event GameContinued (\n        address indexed account,\n        uint256 indexed gameId,\n        uint8[] tally,\n        uint16 score,\n        uint8 turn,\n        uint256 timestamp\n    );\n    \n    event GameEnded (\n        address indexed account,\n        uint256 indexed gameId,\n        uint8[] tally,\n        uint16 score,\n        uint256 timestamp\n    );\n    \n    constructor(address diceAddress) public { \n        _owner = msg.sender;//remove in production\n        _gameIndex = 0;\n        _dice = IBlockDice65Turn3 (diceAddress);\n    }\n    \n    function startGame (\n        bytes32 hash, uint8 verifyBlocks\n    ) external returns(uint256 gameId) {\n        require (_account[msg.sender].game == 0, \"Already in a game\"); \n        require (verifyBlocks != 0, \"verifyBlocks must be > 0\");\n        \n        _dice.startTurn(hash, verifyBlocks);\n        \n        gameId = ++_gameIndex;\n        if (_account[msg.sender].total == 0) {\n            _account[msg.sender] = Account (gameId, 0, 0);\n        } else _account[msg.sender].game = gameId;\n\n        _game[gameId] = Game (msg.sender, 0, verifyBlocks, 0, new uint8[](15));\n\n        emit GameStarted (\n            msg.sender,\n            gameId,\n            verifyBlocks,\n            now\n        );\n    }\n\n    function continueGame (\n        bytes32 turnKey, bytes32 nextHash, uint8[] bankFilter, uint8 cat\n    ) external returns(bool completed) {\n        require (_account[msg.sender].game != 0, \"Not in a game\"); \n        uint256 gameId = _account[msg.sender].game;\n        require (cat < 15 && _game[gameId].tally[cat] == 0, \n            \"Category already scored\");\n        \n        (\n        uint8[] memory bank,\n        bool turnComplete\n        ) = _dice.continueTurn(turnKey, nextHash, bankFilter);\n\n        if (turnComplete) {\n            uint8 catScore = scoreCategory(cat, bank);//255 == 0\n            if (catScore != 0) {\n                _game[gameId].tally[cat] = catScore;\n                _game[gameId].score += catScore;\n            } else _game[gameId].tally[cat] = 255;\n            _game[gameId].turns += 1;\n            if (_game[gameId].turns < 15) {//continue game\n                _dice.startTurn(nextHash, _game[gameId].verify);\n                emit GameContinued (\n                    msg.sender,\n                    gameId,\n                    _game[gameId].tally,\n                    _game[gameId].score,\n                    _game[gameId].turns,\n                    now\n                );\n            } else {//end game\n                if (_game[gameId].score > 0 && \n                    _account[msg.sender].total + 1 > _account[msg.sender].total &&\n                    _account[msg.sender].score + _game[gameId].score > _account[msg.sender].score\n                ) {\n                    _account[msg.sender].total += 1;\n                    _account[msg.sender].score += _game[gameId].score;\n                }\n                _account[msg.sender].game = 0;\n                emit GameEnded (\n                    msg.sender,\n                    gameId,\n                    _game[gameId].tally,\n                    _game[gameId].score,\n                    now\n                );\n\n                completed = true;\n            }\n        }\n    }\n\n    function abortGame () external returns(bool completed) {\n        if (_account[msg.sender].game != 0) {\n            uint256 gameId = _account[msg.sender].game;\n            _dice.abortTurn();\n            if (_game[gameId].score > 0 && \n                _account[msg.sender].total + 1 > _account[msg.sender].total &&\n                _account[msg.sender].score + _game[gameId].score > _account[msg.sender].score\n            ) {\n                _account[msg.sender].total += 1;\n                _account[msg.sender].score += _game[gameId].score;\n            }\n            _account[msg.sender].game = 0;\n            emit GameEnded (\n                msg.sender,\n                gameId,\n                _game[gameId].tally,\n                _game[gameId].score,\n                now\n            );\n\n            completed = true;\n        }\n    }\n\n    function deleteGame(uint256 gameId) external {\n        require (_game[gameId].account == msg.sender, 'Invalid Game');\n        delete _game[gameId];\n    }\n\n    //remove in production\n    function destroy() external {\n       require (msg.sender == _owner);\n       selfdestruct(_owner);\n    }\n    \n    //Return to sender, any abstract transfers\n    function () external payable { msg.sender.transfer(msg.value); }\n\n    function getTurnBank (bytes32 turnKey) external view returns(uint8[] memory bank) {\n        require (_account[msg.sender].game != 0, \"Not in a game\"); \n        bank = _dice.getBank(turnKey);\n    }\n\n    function getTurnRoll (bytes32 turnKey) external view returns(uint8[] memory roll) {\n        require (_account[msg.sender].game != 0, \"Not in a game\"); \n        roll = _dice.getRoll(turnKey);\n    }\n\n    function getGame(uint256 gameId) external view returns (\n        address account,\n        uint16 score,\n        uint8 verify,\n        uint8 turns,\n        uint8[] memory tally\n    ) {\n        account = _game[gameId].account;\n        score = _game[gameId].score;\n        verify = _game[gameId].verify;\n        turns = _game[gameId].turns;\n        tally = _game[gameId].tally;\n    }\n\n    function getAccount(address account) external view \n        returns (uint256 gameId, uint256 total, uint256 score) {\n        gameId = _account[account].game;\n        total = _account[account].total;\n        score = _account[account].score;\n    }\n\n    function gameScore(uint256 gameId) external view returns (uint16 score) {\n        score = _game[gameId].score;\n    }\n\n    function verifyActiveGame(address account, uint256 gameId) external view \n        returns (bool verified) {\n        verified = (account != address(0) && gameId != 0 && \n            _account[account].game == gameId);\n    }\n    \n    function scoreCategory(uint8 category, uint8[] memory bank) internal pure \n        returns (uint8 score) {\n        score = (\n            (category == 0) ? bank[0] ://1s\n            (category == 1) ? bank[1] * 2 ://2s\n            (category == 2) ? bank[2] * 3 ://3s\n            (category == 3) ? bank[3] * 4 ://4s\n            (category == 4) ? bank[4] * 5 ://5s\n            (category == 5) ? bank[5] * 6 ://6s\n            (category == 6) ? (//highest pair\n                (bank[5] > 1) ? 12 : (bank[4] > 1) ? 10 : (bank[3] > 1) ? 8 :\n                (bank[2] > 1) ? 6 : (bank[1] > 1) ? 4 : (bank[0] > 1) ? 2 : 0) :\n            (category == 7) ? (//2 pair\n                (bank[5] > 1 && bank[4] > 1) ? 22 :\n                (bank[5] > 1 && bank[3] > 1) ? 20 :\n                ((bank[5] > 1 && bank[2] > 1) || (bank[4] > 1 && bank[3] > 1)) ? 18 :\n                ((bank[5] > 1 && bank[1] > 1) || (bank[4] > 1 && bank[2] > 1)) ? 16 :\n                ((bank[5] > 1 && bank[0] > 1) || (bank[4] > 1 && bank[1] > 1) \n                    || (bank[3] > 1 && bank[2] > 1)) ? 14 :\n                ((bank[4] > 1 && bank[0] > 1) || (bank[3] > 1 && bank[1] > 1)) ? 12 :\n                ((bank[3] > 1 && bank[0] > 1) || (bank[2] > 1 && bank[1] > 1)) ? 10 :\n                (bank[2] > 1 && bank[0] > 1) ? 8 :\n                (bank[1] > 1 && bank[0] > 1) ? 6 : 0) :\n            (category == 8) ? (//triple\n                (bank[5] > 2) ? 18 : (bank[4] > 2) ? 15 : (bank[3] > 2) ? 12 :\n                (bank[2] > 2) ? 9 : (bank[1] > 2) ? 6 : (bank[0] > 2) ? 3 : 0) :\n            (category == 9) ? (//quad\n                (bank[5] > 3) ? 24 : (bank[4] > 3) ? 20 : (bank[3] > 3) ? 16 :\n                (bank[2] > 3) ? 12 : (bank[1] > 3) ? 8 : (bank[0] > 3) ? 4 : 0) :\n            (category == 10) ? (//low straight\n                (bank[4] == 1 && bank[3] == 1 && bank[2] == 1 && \n                    bank[1] == 1 && bank[0] == 1) ? 15 : 0) :\n            (category == 11) ? (//high straight\n                (bank[5] == 1 && bank[4] == 1 && bank[3] == 1 && \n                    bank[2] == 1 && bank[1] == 1) ? 20 : 0) :\n            (category == 12) ? (//full house\n                (bank[5] == 3) ? (\n                    (bank[4] == 2) ? 28 : (bank[3] == 2) ? 26 : (bank[2] == 2) ? 24 :\n                    (bank[1] == 2) ? 22 : (bank[0] == 2) ? 20 : 0) :\n                (bank[4] == 3) ? (\n                    (bank[5] == 2) ? 27 : (bank[3] == 2) ? 23 : (bank[2] == 2) ? 21 :\n                    (bank[1] == 2) ? 19 : (bank[0] == 2) ? 17 : 0) :\n                (bank[3] == 3) ? (\n                    (bank[5] == 2) ? 24 : (bank[4] == 2) ? 22 : (bank[2] == 2) ? 18 :\n                    (bank[1] == 2) ? 16 : (bank[0] == 2) ? 14 : 0) :\n                (bank[2] == 3) ? (\n                    (bank[5] == 2) ? 21 : (bank[4] == 2) ? 19 : (bank[3] == 2) ? 17 :\n                    (bank[1] == 2) ? 13 : (bank[0] == 2) ? 11 : 0) :\n                (bank[1] == 3) ? (\n                    (bank[5] == 2) ? 18 : (bank[4] == 2) ? 16 : (bank[3] == 2) ? 14 :\n                    (bank[2] == 2) ? 12 : (bank[0] == 2) ? 8 : 0) :\n                (bank[0] == 3) ? (\n                    (bank[5] == 2) ? 15 :  (bank[4] == 2) ? 13 : (bank[3] == 2) ? 11 :\n                    (bank[2] == 2) ? 9 : (bank[1] == 2) ? 7 : 0) : 0) :\n            (category == 13) ? (//yatzy\n                (bank[5] == 5 || bank[4] == 5 || bank[3] == 5 || bank[2] == 5 || \n                    bank[1] == 5 || bank[0] == 5) ? 50 : 0) :\n            (category == 14) ? (//chance\n                (bank[5] * 6) + (bank[4] * 5) + (bank[3] * 4) + (bank[2] * 3) + \n                    (bank[1] * 2) + (bank[0] * 1)) : 0\n        );\n    }\n\n}",
  "sourcePath": "C:/Users/Brian/workspace/web3/dice-game-yatzy/contracts/DiceGameYatzy.sol",
  "compiler": {
    "name": "solc",
    "version": "0.4.24+commit.e67f0147.Emscripten.clang"
  },
  "schemaVersion": "3.0.9",
  "updatedAt": "2019-08-04T08:21:09.145Z",
  "devdoc": {
    "methods": {}
  },
  "userdoc": {
    "methods": {}
  }
}