{
  "contractName": "YatzyCoin",
  "abi": [
    {
      "constant": true,
      "inputs": [],
      "name": "name",
      "outputs": [
        {
          "name": "",
          "type": "string"
        }
      ],
      "payable": false,
      "stateMutability": "view",
      "type": "function"
    },
    {
      "constant": false,
      "inputs": [
        {
          "name": "spender",
          "type": "address"
        },
        {
          "name": "value",
          "type": "uint256"
        }
      ],
      "name": "approve",
      "outputs": [
        {
          "name": "",
          "type": "bool"
        }
      ],
      "payable": false,
      "stateMutability": "nonpayable",
      "type": "function"
    },
    {
      "constant": true,
      "inputs": [],
      "name": "totalSupply",
      "outputs": [
        {
          "name": "",
          "type": "uint256"
        }
      ],
      "payable": false,
      "stateMutability": "view",
      "type": "function"
    },
    {
      "constant": false,
      "inputs": [
        {
          "name": "from",
          "type": "address"
        },
        {
          "name": "to",
          "type": "address"
        },
        {
          "name": "value",
          "type": "uint256"
        }
      ],
      "name": "transferFrom",
      "outputs": [
        {
          "name": "",
          "type": "bool"
        }
      ],
      "payable": false,
      "stateMutability": "nonpayable",
      "type": "function"
    },
    {
      "constant": true,
      "inputs": [],
      "name": "INITIAL_SUPPLY",
      "outputs": [
        {
          "name": "",
          "type": "uint256"
        }
      ],
      "payable": false,
      "stateMutability": "view",
      "type": "function"
    },
    {
      "constant": false,
      "inputs": [
        {
          "name": "value",
          "type": "uint256"
        }
      ],
      "name": "burn",
      "outputs": [
        {
          "name": "",
          "type": "bool"
        }
      ],
      "payable": false,
      "stateMutability": "nonpayable",
      "type": "function"
    },
    {
      "constant": false,
      "inputs": [
        {
          "name": "spender",
          "type": "address"
        },
        {
          "name": "value",
          "type": "uint256"
        }
      ],
      "name": "increaseApproved",
      "outputs": [
        {
          "name": "",
          "type": "bool"
        }
      ],
      "payable": false,
      "stateMutability": "nonpayable",
      "type": "function"
    },
    {
      "constant": true,
      "inputs": [
        {
          "name": "owner",
          "type": "address"
        }
      ],
      "name": "balanceOf",
      "outputs": [
        {
          "name": "",
          "type": "uint256"
        }
      ],
      "payable": false,
      "stateMutability": "view",
      "type": "function"
    },
    {
      "constant": false,
      "inputs": [
        {
          "name": "from",
          "type": "address"
        },
        {
          "name": "value",
          "type": "uint256"
        }
      ],
      "name": "burnFrom",
      "outputs": [
        {
          "name": "",
          "type": "bool"
        }
      ],
      "payable": false,
      "stateMutability": "nonpayable",
      "type": "function"
    },
    {
      "constant": true,
      "inputs": [],
      "name": "symbol",
      "outputs": [
        {
          "name": "",
          "type": "string"
        }
      ],
      "payable": false,
      "stateMutability": "view",
      "type": "function"
    },
    {
      "constant": false,
      "inputs": [
        {
          "name": "to",
          "type": "address"
        },
        {
          "name": "value",
          "type": "uint256"
        }
      ],
      "name": "transfer",
      "outputs": [
        {
          "name": "",
          "type": "bool"
        }
      ],
      "payable": false,
      "stateMutability": "nonpayable",
      "type": "function"
    },
    {
      "constant": false,
      "inputs": [
        {
          "name": "from",
          "type": "address"
        },
        {
          "name": "to",
          "type": "address"
        },
        {
          "name": "value",
          "type": "uint256"
        },
        {
          "name": "data",
          "type": "bytes"
        }
      ],
      "name": "transferFrom",
      "outputs": [
        {
          "name": "",
          "type": "bool"
        }
      ],
      "payable": false,
      "stateMutability": "nonpayable",
      "type": "function"
    },
    {
      "constant": false,
      "inputs": [
        {
          "name": "to",
          "type": "address"
        },
        {
          "name": "value",
          "type": "uint256"
        },
        {
          "name": "data",
          "type": "bytes"
        }
      ],
      "name": "transfer",
      "outputs": [
        {
          "name": "",
          "type": "bool"
        }
      ],
      "payable": false,
      "stateMutability": "nonpayable",
      "type": "function"
    },
    {
      "constant": true,
      "inputs": [
        {
          "name": "owner",
          "type": "address"
        },
        {
          "name": "spender",
          "type": "address"
        }
      ],
      "name": "allowance",
      "outputs": [
        {
          "name": "",
          "type": "uint256"
        }
      ],
      "payable": false,
      "stateMutability": "view",
      "type": "function"
    },
    {
      "constant": false,
      "inputs": [
        {
          "name": "spender",
          "type": "address"
        },
        {
          "name": "value",
          "type": "uint256"
        }
      ],
      "name": "decreaseApproved",
      "outputs": [
        {
          "name": "",
          "type": "bool"
        }
      ],
      "payable": false,
      "stateMutability": "nonpayable",
      "type": "function"
    },
    {
      "inputs": [],
      "payable": false,
      "stateMutability": "nonpayable",
      "type": "constructor"
    },
    {
      "payable": true,
      "stateMutability": "payable",
      "type": "fallback"
    },
    {
      "anonymous": false,
      "inputs": [
        {
          "indexed": true,
          "name": "from",
          "type": "address"
        },
        {
          "indexed": true,
          "name": "to",
          "type": "address"
        },
        {
          "indexed": false,
          "name": "value",
          "type": "uint256"
        }
      ],
      "name": "Transfer",
      "type": "event"
    },
    {
      "anonymous": false,
      "inputs": [
        {
          "indexed": true,
          "name": "owner",
          "type": "address"
        },
        {
          "indexed": true,
          "name": "spender",
          "type": "address"
        },
        {
          "indexed": false,
          "name": "value",
          "type": "uint256"
        }
      ],
      "name": "Approval",
      "type": "event"
    },
    {
      "constant": false,
      "inputs": [
        {
          "name": "amount",
          "type": "uint256"
        }
      ],
      "name": "mintToOwner",
      "outputs": [],
      "payable": false,
      "stateMutability": "nonpayable",
      "type": "function"
    },
    {
      "constant": false,
      "inputs": [],
      "name": "destroy",
      "outputs": [],
      "payable": false,
      "stateMutability": "nonpayable",
      "type": "function"
    }
  ],
  "bytecode": "0x60c0604052600960808190527f5961747a79436f696e000000000000000000000000000000000000000000000060a0908152620000409160039190620000c9565b506040805180820190915260048082527f5941545a000000000000000000000000000000000000000000000000000000006020909201918252620000859181620000c9565b503480156200009357600080fd5b50633b9aca00600081815533808252600160205260409091209190915560058054600160a060020a03191690911790556200016e565b828054600181600116156101000203166002900490600052602060002090601f016020900481019282601f106200010c57805160ff19168380011785556200013c565b828001600101855582156200013c579182015b828111156200013c5782518255916020019190600101906200011f565b506200014a9291506200014e565b5090565b6200016b91905b808211156200014a576000815560010162000155565b90565b6114ef806200017e6000396000f3006080604052600436106100f05763ffffffff7c010000000000000000000000000000000000000000000000000000000060003504166306fdde03811461011f578063095ea7b3146101a957806318160ddd146101ee57806323b872dd146102155780632ff2e9dc1461024c57806342966c681461026157806348043f0d14610279578063523bf78d1461029357806370a08231146102c457806379cc6790146102f257806383197ef01461032357806395d89b4114610338578063a9059cbb1461034d578063ab67aa581461037e578063be45fd62146103c4578063dd62ed3e14610402578063f7e95b4014610436575b60405133903480156108fc02916000818181858888f1935050505015801561011c573d6000803e3d6000fd5b50005b34801561012b57600080fd5b50610134610467565b6040805160208082528351818301528351919283929083019185019080838360005b8381101561016e578181015183820152602001610156565b50505050905090810190601f16801561019b5780820380516001836020036101000a031916815260200191505b509250505060405180910390f35b3480156101b557600080fd5b506101da73ffffffffffffffffffffffffffffffffffffffff60043516602435610513565b604080519115158252519081900360200190f35b3480156101fa57600080fd5b50610203610631565b60408051918252519081900360200190f35b34801561022157600080fd5b506101da73ffffffffffffffffffffffffffffffffffffffff60043581169060243516604435610637565b34801561025857600080fd5b5061020361065d565b34801561026d57600080fd5b506101da600435610665565b34801561028557600080fd5b50610291600435610677565b005b34801561029f57600080fd5b506101da73ffffffffffffffffffffffffffffffffffffffff60043516602435610724565b3480156102d057600080fd5b5061020373ffffffffffffffffffffffffffffffffffffffff60043516610921565b3480156102fe57600080fd5b506101da73ffffffffffffffffffffffffffffffffffffffff60043516602435610949565b34801561032f57600080fd5b5061029161095c565b34801561034457600080fd5b5061013461099b565b34801561035957600080fd5b506101da73ffffffffffffffffffffffffffffffffffffffff60043516602435610a14565b34801561038a57600080fd5b506101da73ffffffffffffffffffffffffffffffffffffffff60048035821691602480359091169160443591606435908101910135610a32565b3480156103d057600080fd5b506101da6004803573ffffffffffffffffffffffffffffffffffffffff16906024803591604435918201910135610a7a565b34801561040e57600080fd5b5061020373ffffffffffffffffffffffffffffffffffffffff60043581169060243516610ac1565b34801561044257600080fd5b506101da73ffffffffffffffffffffffffffffffffffffffff60043516602435610af9565b6003805460408051602060026001851615610100027fffffffffffffffffffffffffffffffffffffffffffffffffffffffffffffffff0190941693909304601f8101849004840282018401909252818152929183018282801561050b5780601f106104e05761010080835404028352916020019161050b565b820191906000526020600020905b8154815290600101906020018083116104ee57829003601f168201915b505050505081565b600073ffffffffffffffffffffffffffffffffffffffff83163314801590610550575073ffffffffffffffffffffffffffffffffffffffff831615155b15156105bd57604080517f08c379a000000000000000000000000000000000000000000000000000000000815260206004820152601060248201527f496e76616c6964207370656e6465722e00000000000000000000000000000000604482015290519081900360640190fd5b33600081815260026020908152604080832073ffffffffffffffffffffffffffffffffffffffff881680855290835292819020869055805186815290519293927f8c5be1e5ebec7d5bd14f71427d1e84f3dd0314c0f7b2291e5b200ac8c7c3b925929181900390910190a350600192915050565b60005490565b60006106558484846020604051908101604052806000815250610c92565b949350505050565b633b9aca0081565b60006106713383611156565b92915050565b60055473ffffffffffffffffffffffffffffffffffffffff1633146106fd57604080517f08c379a000000000000000000000000000000000000000000000000000000000815260206004820152601d60248201527f4f6e6c79206f776e657220697320616c6c6f77656420746f206d696e74000000604482015290519081900360640190fd5b6005546107209073ffffffffffffffffffffffffffffffffffffffff168261138d565b5050565b600073ffffffffffffffffffffffffffffffffffffffff83163314801590610761575073ffffffffffffffffffffffffffffffffffffffff831615155b15156107ce57604080517f08c379a000000000000000000000000000000000000000000000000000000000815260206004820152601060248201527f496e76616c6964207370656e6465722e00000000000000000000000000000000604482015290519081900360640190fd5b33600090815260026020908152604080832073ffffffffffffffffffffffffffffffffffffffff87168452909152902054828101101561086f57604080517f08c379a000000000000000000000000000000000000000000000000000000000815260206004820152601b60248201527f496e76616c696420616c6c6f77616e6365206f766572666c6f772e0000000000604482015290519081900360640190fd5b60008211156108af5733600090815260026020908152604080832073ffffffffffffffffffffffffffffffffffffffff8716845290915290208054830190555b33600081815260026020908152604080832073ffffffffffffffffffffffffffffffffffffffff88168085529083529281902054815190815290519293927f8c5be1e5ebec7d5bd14f71427d1e84f3dd0314c0f7b2291e5b200ac8c7c3b925929181900390910190a350600192915050565b73ffffffffffffffffffffffffffffffffffffffff1660009081526001602052604090205490565b60006109558383611156565b9392505050565b60055473ffffffffffffffffffffffffffffffffffffffff16331461098057600080fd5b60055473ffffffffffffffffffffffffffffffffffffffff16ff5b6004805460408051602060026001851615610100027fffffffffffffffffffffffffffffffffffffffffffffffffffffffffffffffff0190941693909304601f8101849004840282018401909252818152929183018282801561050b5780601f106104e05761010080835404028352916020019161050b565b60006109553384846020604051908101604052806000815250610c92565b6000610a7086868686868080601f01602080910402602001604051908101604052809392919081815260200183838082843750610c92945050505050565b9695505050505050565b6000610ab833868686868080601f01602080910402602001604051908101604052809392919081815260200183838082843750610c92945050505050565b95945050505050565b73ffffffffffffffffffffffffffffffffffffffff918216600090815260026020908152604080832093909416825291909152205490565b600073ffffffffffffffffffffffffffffffffffffffff83163314801590610b36575073ffffffffffffffffffffffffffffffffffffffff831615155b1515610ba357604080517f08c379a000000000000000000000000000000000000000000000000000000000815260206004820152601060248201527f496e76616c6964207370656e6465722e00000000000000000000000000000000604482015290519081900360640190fd5b60008211156108af5733600090815260026020908152604080832073ffffffffffffffffffffffffffffffffffffffff87168452909152902054821015610c1d5733600090815260026020908152604080832073ffffffffffffffffffffffffffffffffffffffff87168452909152902054829003610c20565b60005b33600081815260026020908152604080832073ffffffffffffffffffffffffffffffffffffffff89168085529083529281902085905580519485525191937f8c5be1e5ebec7d5bd14f71427d1e84f3dd0314c0f7b2291e5b200ac8c7c3b925929081900390910190a350600192915050565b6000808073ffffffffffffffffffffffffffffffffffffffff8716331480610cea575073ffffffffffffffffffffffffffffffffffffffff871660009081526002602090815260408083203384529091529020548511155b1515610d5757604080517f08c379a000000000000000000000000000000000000000000000000000000000815260206004820152601660248201527f496e737566666963656e7420616c6c6f77616e63652e00000000000000000000604482015290519081900360640190fd5b73ffffffffffffffffffffffffffffffffffffffff8716600090815260016020526040902054851115610deb57604080517f08c379a000000000000000000000000000000000000000000000000000000000815260206004820152601460248201527f496e737566666963656e742062616c616e63652e000000000000000000000000604482015290519081900360640190fd5b8673ffffffffffffffffffffffffffffffffffffffff168673ffffffffffffffffffffffffffffffffffffffff1614158015610e3c575073ffffffffffffffffffffffffffffffffffffffff861615155b1515610ea957604080517f08c379a000000000000000000000000000000000000000000000000000000000815260206004820152601a60248201527f496e76616c696420726563697069656e74206163636f756e742e000000000000604482015290519081900360640190fd5b73ffffffffffffffffffffffffffffffffffffffff86166000908152600160205260409020548581011015610f3f57604080517f08c379a000000000000000000000000000000000000000000000000000000000815260206004820152601b60248201527f496e76616c696420726563697069656e74206f766572666c6f772e0000000000604482015290519081900360640190fd5b6000851115610fd85773ffffffffffffffffffffffffffffffffffffffff87163314610f9d5773ffffffffffffffffffffffffffffffffffffffff871660009081526002602090815260408083203384529091529020805486900390555b73ffffffffffffffffffffffffffffffffffffffff808816600090815260016020526040808220805489900390559188168152208054860190555b853b915060008211156110e457506040517fc0ee0b8a00000000000000000000000000000000000000000000000000000000815273ffffffffffffffffffffffffffffffffffffffff878116600483019081526024830187905260606044840190815286516064850152865189949385169363c0ee0b8a938c938b938b9360840190602085019080838360005b8381101561107d578181015183820152602001611065565b50505050905090810190601f1680156110aa5780820380516001836020036101000a031916815260200191505b50945050505050600060405180830381600087803b1580156110cb57600080fd5b505af11580156110df573d6000803e3d6000fd5b505050505b8573ffffffffffffffffffffffffffffffffffffffff168773ffffffffffffffffffffffffffffffffffffffff167fddf252ad1be2c89b69c2b068fc378daa952ba7f163c4a11628f55a4df523b3ef876040518082815260200191505060405180910390a35060019695505050505050565b600073ffffffffffffffffffffffffffffffffffffffff83163314806111ac575073ffffffffffffffffffffffffffffffffffffffff831660009081526002602090815260408083203384529091529020548211155b151561121957604080517f08c379a000000000000000000000000000000000000000000000000000000000815260206004820152601660248201527f496e737566666963656e7420616c6c6f77616e63652e00000000000000000000604482015290519081900360640190fd5b73ffffffffffffffffffffffffffffffffffffffff83166000908152600160205260409020548211156112ad57604080517f08c379a000000000000000000000000000000000000000000000000000000000815260206004820152601260248201527f496e737566666963656e742066756e64732e0000000000000000000000000000604482015290519081900360640190fd5b6000548211156112b957fe5b60008211156113365773ffffffffffffffffffffffffffffffffffffffff8316600081815260016020526040902080548490039055331461132c5773ffffffffffffffffffffffffffffffffffffffff831660009081526002602090815260408083203384529091529020805483900390555b6000805483900390555b60408051838152905160009173ffffffffffffffffffffffffffffffffffffffff8616917fddf252ad1be2c89b69c2b068fc378daa952ba7f163c4a11628f55a4df523b3ef9181900360200190a350600192915050565b60008054828101101561140157604080517f08c379a000000000000000000000000000000000000000000000000000000000815260206004820152600f60248201527f537570706c79206f766572666c6f770000000000000000000000000000000000604482015290519081900360640190fd5b73ffffffffffffffffffffffffffffffffffffffff8316600090815260016020526040902054828101101561143257fe5b600082111561146c57600080548301815573ffffffffffffffffffffffffffffffffffffffff841681526001602052604090208054830190555b60408051838152905173ffffffffffffffffffffffffffffffffffffffff8516916000917fddf252ad1be2c89b69c2b068fc378daa952ba7f163c4a11628f55a4df523b3ef9181900360200190a3506001929150505600a165627a7a723058200aa72b5620833ef73547b599fb8614c7fa27634e44634f4b3e861775d87a87a50029",
  "source": "pragma solidity ^0.4.24;\r\nimport \"./CoinBase.sol\";\r\n\r\ncontract YatzyCoin is CoinBase {\r\n    \r\n    string public name = \"YatzyCoin\";\r\n    string public symbol = \"YATZ\";\r\n    uint256 public constant INITIAL_SUPPLY = 1000000000;//1 billion\r\n\r\n    address private _owner;\r\n    \r\n    constructor() CoinBase(INITIAL_SUPPLY) public {\r\n        _owner = msg.sender;\r\n    }\r\n\r\n    function mintToOwner(uint256 amount) public {\r\n        require(msg.sender == _owner, \"Only owner is allowed to mint\");\r\n        mintAmount(_owner, amount);\r\n    } \r\n\r\n    //remove in production\r\n    function destroy() external {\r\n       require (msg.sender == _owner);\r\n       selfdestruct(_owner);\r\n    }\r\n    \r\n    //Return to sender, any abstract transfers\r\n    function () external payable { msg.sender.transfer(msg.value); }\r\n}",
  "sourcePath": "C:/Users/Brian/workspace/web3/yatzy-coin/contracts/YatzyCoin.sol",
  "compiler": {
    "name": "solc",
    "version": "0.4.24+commit.e67f0147.Emscripten.clang"
  },
  "schemaVersion": "3.0.9",
  "updatedAt": "2019-08-05T20:52:59.519Z",
  "devdoc": {
    "methods": {}
  },
  "userdoc": {
    "methods": {}
  }
}