{
  "contractName": "YatzyCoinPlasma",
  "abi": [
    {
      "constant": true,
      "inputs": [],
      "name": "name",
      "outputs": [
        {
          "name": "",
          "type": "string"
        }
      ],
      "payable": false,
      "stateMutability": "view",
      "type": "function"
    },
    {
      "constant": false,
      "inputs": [
        {
          "name": "spender",
          "type": "address"
        },
        {
          "name": "value",
          "type": "uint256"
        }
      ],
      "name": "approve",
      "outputs": [
        {
          "name": "",
          "type": "bool"
        }
      ],
      "payable": false,
      "stateMutability": "nonpayable",
      "type": "function"
    },
    {
      "constant": true,
      "inputs": [],
      "name": "gateway",
      "outputs": [
        {
          "name": "",
          "type": "address"
        }
      ],
      "payable": false,
      "stateMutability": "view",
      "type": "function"
    },
    {
      "constant": true,
      "inputs": [],
      "name": "totalSupply",
      "outputs": [
        {
          "name": "",
          "type": "uint256"
        }
      ],
      "payable": false,
      "stateMutability": "view",
      "type": "function"
    },
    {
      "constant": false,
      "inputs": [
        {
          "name": "from",
          "type": "address"
        },
        {
          "name": "to",
          "type": "address"
        },
        {
          "name": "value",
          "type": "uint256"
        }
      ],
      "name": "transferFrom",
      "outputs": [
        {
          "name": "",
          "type": "bool"
        }
      ],
      "payable": false,
      "stateMutability": "nonpayable",
      "type": "function"
    },
    {
      "constant": false,
      "inputs": [
        {
          "name": "value",
          "type": "uint256"
        }
      ],
      "name": "burn",
      "outputs": [
        {
          "name": "",
          "type": "bool"
        }
      ],
      "payable": false,
      "stateMutability": "nonpayable",
      "type": "function"
    },
    {
      "constant": false,
      "inputs": [
        {
          "name": "spender",
          "type": "address"
        },
        {
          "name": "value",
          "type": "uint256"
        }
      ],
      "name": "increaseApproved",
      "outputs": [
        {
          "name": "",
          "type": "bool"
        }
      ],
      "payable": false,
      "stateMutability": "nonpayable",
      "type": "function"
    },
    {
      "constant": true,
      "inputs": [
        {
          "name": "owner",
          "type": "address"
        }
      ],
      "name": "balanceOf",
      "outputs": [
        {
          "name": "",
          "type": "uint256"
        }
      ],
      "payable": false,
      "stateMutability": "view",
      "type": "function"
    },
    {
      "constant": false,
      "inputs": [
        {
          "name": "from",
          "type": "address"
        },
        {
          "name": "value",
          "type": "uint256"
        }
      ],
      "name": "burnFrom",
      "outputs": [
        {
          "name": "",
          "type": "bool"
        }
      ],
      "payable": false,
      "stateMutability": "nonpayable",
      "type": "function"
    },
    {
      "constant": true,
      "inputs": [],
      "name": "symbol",
      "outputs": [
        {
          "name": "",
          "type": "string"
        }
      ],
      "payable": false,
      "stateMutability": "view",
      "type": "function"
    },
    {
      "constant": false,
      "inputs": [
        {
          "name": "to",
          "type": "address"
        },
        {
          "name": "value",
          "type": "uint256"
        }
      ],
      "name": "transfer",
      "outputs": [
        {
          "name": "",
          "type": "bool"
        }
      ],
      "payable": false,
      "stateMutability": "nonpayable",
      "type": "function"
    },
    {
      "constant": false,
      "inputs": [
        {
          "name": "from",
          "type": "address"
        },
        {
          "name": "to",
          "type": "address"
        },
        {
          "name": "value",
          "type": "uint256"
        },
        {
          "name": "data",
          "type": "bytes"
        }
      ],
      "name": "transferFrom",
      "outputs": [
        {
          "name": "",
          "type": "bool"
        }
      ],
      "payable": false,
      "stateMutability": "nonpayable",
      "type": "function"
    },
    {
      "constant": false,
      "inputs": [
        {
          "name": "to",
          "type": "address"
        },
        {
          "name": "value",
          "type": "uint256"
        },
        {
          "name": "data",
          "type": "bytes"
        }
      ],
      "name": "transfer",
      "outputs": [
        {
          "name": "",
          "type": "bool"
        }
      ],
      "payable": false,
      "stateMutability": "nonpayable",
      "type": "function"
    },
    {
      "constant": true,
      "inputs": [
        {
          "name": "owner",
          "type": "address"
        },
        {
          "name": "spender",
          "type": "address"
        }
      ],
      "name": "allowance",
      "outputs": [
        {
          "name": "",
          "type": "uint256"
        }
      ],
      "payable": false,
      "stateMutability": "view",
      "type": "function"
    },
    {
      "constant": false,
      "inputs": [
        {
          "name": "spender",
          "type": "address"
        },
        {
          "name": "value",
          "type": "uint256"
        }
      ],
      "name": "decreaseApproved",
      "outputs": [
        {
          "name": "",
          "type": "bool"
        }
      ],
      "payable": false,
      "stateMutability": "nonpayable",
      "type": "function"
    },
    {
      "inputs": [
        {
          "name": "gatewayAddress",
          "type": "address"
        }
      ],
      "payable": false,
      "stateMutability": "nonpayable",
      "type": "constructor"
    },
    {
      "payable": true,
      "stateMutability": "payable",
      "type": "fallback"
    },
    {
      "anonymous": false,
      "inputs": [
        {
          "indexed": true,
          "name": "from",
          "type": "address"
        },
        {
          "indexed": true,
          "name": "to",
          "type": "address"
        },
        {
          "indexed": false,
          "name": "value",
          "type": "uint256"
        }
      ],
      "name": "Transfer",
      "type": "event"
    },
    {
      "anonymous": false,
      "inputs": [
        {
          "indexed": true,
          "name": "owner",
          "type": "address"
        },
        {
          "indexed": true,
          "name": "spender",
          "type": "address"
        },
        {
          "indexed": false,
          "name": "value",
          "type": "uint256"
        }
      ],
      "name": "Approval",
      "type": "event"
    },
    {
      "constant": false,
      "inputs": [
        {
          "name": "amount",
          "type": "uint256"
        }
      ],
      "name": "mintToGateway",
      "outputs": [],
      "payable": false,
      "stateMutability": "nonpayable",
      "type": "function"
    },
    {
      "constant": false,
      "inputs": [],
      "name": "destroy",
      "outputs": [],
      "payable": false,
      "stateMutability": "nonpayable",
      "type": "function"
    }
  ],
  "bytecode": "0x60c0604052600960808190527f5961747a79436f696e000000000000000000000000000000000000000000000060a0908152620000409160039190620000eb565b506040805180820190915260048082527f5941545a000000000000000000000000000000000000000000000000000000006020909201918252620000859181620000eb565b503480156200009357600080fd5b50604051602080620016f2833981016040908152905160008080553380825260016020529281205560058054600160a060020a0319908116909317905560068054909216600160a060020a0390911617905562000190565b828054600181600116156101000203166002900490600052602060002090601f016020900481019282601f106200012e57805160ff19168380011785556200015e565b828001600101855582156200015e579182015b828111156200015e57825182559160200191906001019062000141565b506200016c92915062000170565b5090565b6200018d91905b808211156200016c576000815560010162000177565b90565b61155280620001a06000396000f3006080604052600436106100f05763ffffffff7c010000000000000000000000000000000000000000000000000000000060003504166306fdde03811461011f578063095ea7b3146101a9578063116191b6146101ee57806318160ddd1461022c57806323b872dd1461025357806342966c681461028a578063523bf78d146102a2578063544297f5146102d357806370a08231146102ed57806379cc67901461031b57806383197ef01461034c57806395d89b4114610361578063a9059cbb14610376578063ab67aa58146103a7578063be45fd62146103ed578063dd62ed3e1461042b578063f7e95b401461045f575b60405133903480156108fc02916000818181858888f1935050505015801561011c573d6000803e3d6000fd5b50005b34801561012b57600080fd5b50610134610490565b6040805160208082528351818301528351919283929083019185019080838360005b8381101561016e578181015183820152602001610156565b50505050905090810190601f16801561019b5780820380516001836020036101000a031916815260200191505b509250505060405180910390f35b3480156101b557600080fd5b506101da73ffffffffffffffffffffffffffffffffffffffff6004351660243561053c565b604080519115158252519081900360200190f35b3480156101fa57600080fd5b5061020361065a565b6040805173ffffffffffffffffffffffffffffffffffffffff9092168252519081900360200190f35b34801561023857600080fd5b50610241610676565b60408051918252519081900360200190f35b34801561025f57600080fd5b506101da73ffffffffffffffffffffffffffffffffffffffff6004358116906024351660443561067c565b34801561029657600080fd5b506101da6004356106a2565b3480156102ae57600080fd5b506101da73ffffffffffffffffffffffffffffffffffffffff600435166024356106b4565b3480156102df57600080fd5b506102eb6004356108b1565b005b3480156102f957600080fd5b5061024173ffffffffffffffffffffffffffffffffffffffff60043516610984565b34801561032757600080fd5b506101da73ffffffffffffffffffffffffffffffffffffffff600435166024356109ac565b34801561035857600080fd5b506102eb6109bf565b34801561036d57600080fd5b506101346109fe565b34801561038257600080fd5b506101da73ffffffffffffffffffffffffffffffffffffffff60043516602435610a77565b3480156103b357600080fd5b506101da73ffffffffffffffffffffffffffffffffffffffff60048035821691602480359091169160443591606435908101910135610a95565b3480156103f957600080fd5b506101da6004803573ffffffffffffffffffffffffffffffffffffffff16906024803591604435918201910135610add565b34801561043757600080fd5b5061024173ffffffffffffffffffffffffffffffffffffffff60043581169060243516610b24565b34801561046b57600080fd5b506101da73ffffffffffffffffffffffffffffffffffffffff60043516602435610b5c565b6003805460408051602060026001851615610100027fffffffffffffffffffffffffffffffffffffffffffffffffffffffffffffffff0190941693909304601f810184900484028201840190925281815292918301828280156105345780601f1061050957610100808354040283529160200191610534565b820191906000526020600020905b81548152906001019060200180831161051757829003601f168201915b505050505081565b600073ffffffffffffffffffffffffffffffffffffffff83163314801590610579575073ffffffffffffffffffffffffffffffffffffffff831615155b15156105e657604080517f08c379a000000000000000000000000000000000000000000000000000000000815260206004820152601060248201527f496e76616c6964207370656e6465722e00000000000000000000000000000000604482015290519081900360640190fd5b33600081815260026020908152604080832073ffffffffffffffffffffffffffffffffffffffff881680855290835292819020869055805186815290519293927f8c5be1e5ebec7d5bd14f71427d1e84f3dd0314c0f7b2291e5b200ac8c7c3b925929181900390910190a350600192915050565b60065473ffffffffffffffffffffffffffffffffffffffff1681565b60005490565b600061069a8484846020604051908101604052806000815250610cf5565b949350505050565b60006106ae33836111b9565b92915050565b600073ffffffffffffffffffffffffffffffffffffffff831633148015906106f1575073ffffffffffffffffffffffffffffffffffffffff831615155b151561075e57604080517f08c379a000000000000000000000000000000000000000000000000000000000815260206004820152601060248201527f496e76616c6964207370656e6465722e00000000000000000000000000000000604482015290519081900360640190fd5b33600090815260026020908152604080832073ffffffffffffffffffffffffffffffffffffffff8716845290915290205482810110156107ff57604080517f08c379a000000000000000000000000000000000000000000000000000000000815260206004820152601b60248201527f496e76616c696420616c6c6f77616e6365206f766572666c6f772e0000000000604482015290519081900360640190fd5b600082111561083f5733600090815260026020908152604080832073ffffffffffffffffffffffffffffffffffffffff8716845290915290208054830190555b33600081815260026020908152604080832073ffffffffffffffffffffffffffffffffffffffff88168085529083529281902054815190815290519293927f8c5be1e5ebec7d5bd14f71427d1e84f3dd0314c0f7b2291e5b200ac8c7c3b925929181900390910190a350600192915050565b60065473ffffffffffffffffffffffffffffffffffffffff16331461095d57604080517f08c379a000000000000000000000000000000000000000000000000000000000815260206004820152602360248201527f4f6e6c7920746865206761746577617920697320616c6c6f77656420746f206d60448201527f696e740000000000000000000000000000000000000000000000000000000000606482015290519081900360840190fd5b6006546109809073ffffffffffffffffffffffffffffffffffffffff16826113f0565b5050565b73ffffffffffffffffffffffffffffffffffffffff1660009081526001602052604090205490565b60006109b883836111b9565b9392505050565b60055473ffffffffffffffffffffffffffffffffffffffff1633146109e357600080fd5b60055473ffffffffffffffffffffffffffffffffffffffff16ff5b6004805460408051602060026001851615610100027fffffffffffffffffffffffffffffffffffffffffffffffffffffffffffffffff0190941693909304601f810184900484028201840190925281815292918301828280156105345780601f1061050957610100808354040283529160200191610534565b60006109b83384846020604051908101604052806000815250610cf5565b6000610ad386868686868080601f01602080910402602001604051908101604052809392919081815260200183838082843750610cf5945050505050565b9695505050505050565b6000610b1b33868686868080601f01602080910402602001604051908101604052809392919081815260200183838082843750610cf5945050505050565b95945050505050565b73ffffffffffffffffffffffffffffffffffffffff918216600090815260026020908152604080832093909416825291909152205490565b600073ffffffffffffffffffffffffffffffffffffffff83163314801590610b99575073ffffffffffffffffffffffffffffffffffffffff831615155b1515610c0657604080517f08c379a000000000000000000000000000000000000000000000000000000000815260206004820152601060248201527f496e76616c6964207370656e6465722e00000000000000000000000000000000604482015290519081900360640190fd5b600082111561083f5733600090815260026020908152604080832073ffffffffffffffffffffffffffffffffffffffff87168452909152902054821015610c805733600090815260026020908152604080832073ffffffffffffffffffffffffffffffffffffffff87168452909152902054829003610c83565b60005b33600081815260026020908152604080832073ffffffffffffffffffffffffffffffffffffffff89168085529083529281902085905580519485525191937f8c5be1e5ebec7d5bd14f71427d1e84f3dd0314c0f7b2291e5b200ac8c7c3b925929081900390910190a350600192915050565b6000808073ffffffffffffffffffffffffffffffffffffffff8716331480610d4d575073ffffffffffffffffffffffffffffffffffffffff871660009081526002602090815260408083203384529091529020548511155b1515610dba57604080517f08c379a000000000000000000000000000000000000000000000000000000000815260206004820152601660248201527f496e737566666963656e7420616c6c6f77616e63652e00000000000000000000604482015290519081900360640190fd5b73ffffffffffffffffffffffffffffffffffffffff8716600090815260016020526040902054851115610e4e57604080517f08c379a000000000000000000000000000000000000000000000000000000000815260206004820152601460248201527f496e737566666963656e742062616c616e63652e000000000000000000000000604482015290519081900360640190fd5b8673ffffffffffffffffffffffffffffffffffffffff168673ffffffffffffffffffffffffffffffffffffffff1614158015610e9f575073ffffffffffffffffffffffffffffffffffffffff861615155b1515610f0c57604080517f08c379a000000000000000000000000000000000000000000000000000000000815260206004820152601a60248201527f496e76616c696420726563697069656e74206163636f756e742e000000000000604482015290519081900360640190fd5b73ffffffffffffffffffffffffffffffffffffffff86166000908152600160205260409020548581011015610fa257604080517f08c379a000000000000000000000000000000000000000000000000000000000815260206004820152601b60248201527f496e76616c696420726563697069656e74206f766572666c6f772e0000000000604482015290519081900360640190fd5b600085111561103b5773ffffffffffffffffffffffffffffffffffffffff871633146110005773ffffffffffffffffffffffffffffffffffffffff871660009081526002602090815260408083203384529091529020805486900390555b73ffffffffffffffffffffffffffffffffffffffff808816600090815260016020526040808220805489900390559188168152208054860190555b853b9150600082111561114757506040517fc0ee0b8a00000000000000000000000000000000000000000000000000000000815273ffffffffffffffffffffffffffffffffffffffff878116600483019081526024830187905260606044840190815286516064850152865189949385169363c0ee0b8a938c938b938b9360840190602085019080838360005b838110156110e05781810151838201526020016110c8565b50505050905090810190601f16801561110d5780820380516001836020036101000a031916815260200191505b50945050505050600060405180830381600087803b15801561112e57600080fd5b505af1158015611142573d6000803e3d6000fd5b505050505b8573ffffffffffffffffffffffffffffffffffffffff168773ffffffffffffffffffffffffffffffffffffffff167fddf252ad1be2c89b69c2b068fc378daa952ba7f163c4a11628f55a4df523b3ef876040518082815260200191505060405180910390a35060019695505050505050565b600073ffffffffffffffffffffffffffffffffffffffff831633148061120f575073ffffffffffffffffffffffffffffffffffffffff831660009081526002602090815260408083203384529091529020548211155b151561127c57604080517f08c379a000000000000000000000000000000000000000000000000000000000815260206004820152601660248201527f496e737566666963656e7420616c6c6f77616e63652e00000000000000000000604482015290519081900360640190fd5b73ffffffffffffffffffffffffffffffffffffffff831660009081526001602052604090205482111561131057604080517f08c379a000000000000000000000000000000000000000000000000000000000815260206004820152601260248201527f496e737566666963656e742066756e64732e0000000000000000000000000000604482015290519081900360640190fd5b60005482111561131c57fe5b60008211156113995773ffffffffffffffffffffffffffffffffffffffff8316600081815260016020526040902080548490039055331461138f5773ffffffffffffffffffffffffffffffffffffffff831660009081526002602090815260408083203384529091529020805483900390555b6000805483900390555b60408051838152905160009173ffffffffffffffffffffffffffffffffffffffff8616917fddf252ad1be2c89b69c2b068fc378daa952ba7f163c4a11628f55a4df523b3ef9181900360200190a350600192915050565b60008054828101101561146457604080517f08c379a000000000000000000000000000000000000000000000000000000000815260206004820152600f60248201527f537570706c79206f766572666c6f770000000000000000000000000000000000604482015290519081900360640190fd5b73ffffffffffffffffffffffffffffffffffffffff8316600090815260016020526040902054828101101561149557fe5b60008211156114cf57600080548301815573ffffffffffffffffffffffffffffffffffffffff841681526001602052604090208054830190555b60408051838152905173ffffffffffffffffffffffffffffffffffffffff8516916000917fddf252ad1be2c89b69c2b068fc378daa952ba7f163c4a11628f55a4df523b3ef9181900360200190a3506001929150505600a165627a7a723058206ca851a80fd1c5bdb8619bf1436ae1721eecd338ea8091cf0d71ba1dad0f7d340029",
  "source": "pragma solidity ^0.4.24;\r\nimport \"./CoinBase.sol\";\r\n\r\ncontract YatzyCoinPlasma is CoinBase {\r\n\r\n    string public name = \"YatzyCoin\";\r\n    string public symbol = \"YATZ\";\r\n\r\n    address private _owner;\r\n\r\n    // Transfer Gateway contract address\r\n    address public gateway;\r\n    \r\n    constructor(address gatewayAddress) CoinBase(0) public {\r\n        _owner = msg.sender;\r\n        gateway = gatewayAddress;\r\n    }\r\n\r\n    // Used by the DAppChain Gateway to mint tokens that have been deposited to the Ethereum Gateway\r\n    function mintToGateway(uint256 amount) public {\r\n        require(msg.sender == gateway, \"Only the gateway is allowed to mint\");\r\n        mintAmount(gateway, amount);\r\n    }\r\n\r\n    //remove in production\r\n    function destroy() external {\r\n       require (msg.sender == _owner);\r\n       selfdestruct(_owner);\r\n    }\r\n    \r\n    //Fallback - return any abstract transfers to sender \r\n    function () external payable { msg.sender.transfer(msg.value); }\r\n}",
  "sourcePath": "C:/Users/Brian/workspace/web3/yatzy-coin/contracts/YatzyCoinPlasma.sol",
  "compiler": {
    "name": "solc",
    "version": "0.4.24+commit.e67f0147.Emscripten.clang"
  },
  "schemaVersion": "3.0.9",
  "updatedAt": "2019-07-28T02:47:32.117Z",
  "devdoc": {
    "methods": {}
  },
  "userdoc": {
    "methods": {}
  }
}